{
  "_format": "hh-sol-artifact-1",
  "contractName": "AddressOracle",
  "sourceName": "contracts/addressOracle/AddressOracle.sol",
  "abi": [
    {
      "inputs": [],
      "stateMutability": "nonpayable",
      "type": "constructor"
    },
    {
      "inputs": [
        {
          "internalType": "address",
          "name": "ethereumAddress",
          "type": "address"
        }
      ],
      "name": "getF0Address",
      "outputs": [
        {
          "internalType": "string",
          "name": "",
          "type": "string"
        }
      ],
      "stateMutability": "view",
      "type": "function"
    },
    {
      "inputs": [
        {
          "internalType": "address",
          "name": "ethereumAddress",
          "type": "address"
        },
        {
          "internalType": "string",
          "name": "f0Address",
          "type": "string"
        }
      ],
      "name": "setF0Address",
      "outputs": [],
      "stateMutability": "nonpayable",
      "type": "function"
    }
  ],
  "bytecode": "0x60806040523480156200001157600080fd5b506040518060400160405280600681526020017f743031313039000000000000000000000000000000000000000000000000000081525060008073e67e1f24a637f84be1e68d547022de8883a0d89b73ffffffffffffffffffffffffffffffffffffffff1673ffffffffffffffffffffffffffffffffffffffff1681526020019081526020016000209081620000a8919062000329565b5062000410565b600081519050919050565b7f4e487b7100000000000000000000000000000000000000000000000000000000600052604160045260246000fd5b7f4e487b7100000000000000000000000000000000000000000000000000000000600052602260045260246000fd5b600060028204905060018216806200013157607f821691505b602082108103620001475762000146620000e9565b5b50919050565b60008190508160005260206000209050919050565b60006020601f8301049050919050565b600082821b905092915050565b600060088302620001b17fffffffffffffffffffffffffffffffffffffffffffffffffffffffffffffffff8262000172565b620001bd868362000172565b95508019841693508086168417925050509392505050565b6000819050919050565b6000819050919050565b60006200020a62000204620001fe84620001d5565b620001df565b620001d5565b9050919050565b6000819050919050565b6200022683620001e9565b6200023e620002358262000211565b8484546200017f565b825550505050565b600090565b6200025562000246565b620002628184846200021b565b505050565b5b818110156200028a576200027e6000826200024b565b60018101905062000268565b5050565b601f821115620002d957620002a3816200014d565b620002ae8462000162565b81016020851015620002be578190505b620002d6620002cd8562000162565b83018262000267565b50505b505050565b600082821c905092915050565b6000620002fe60001984600802620002de565b1980831691505092915050565b6000620003198383620002eb565b9150826002028217905092915050565b6200033482620000af565b67ffffffffffffffff81111562000350576200034f620000ba565b5b6200035c825462000118565b620003698282856200028e565b600060209050601f831160018114620003a157600084156200038c578287015190505b6200039885826200030b565b86555062000408565b601f198416620003b1866200014d565b60005b82811015620003db57848901518255600182019150602085019450602081019050620003b4565b86831015620003fb5784890151620003f7601f891682620002eb565b8355505b6001600288020188555050505b505050505050565b6107a780620004206000396000f3fe608060405234801561001057600080fd5b50600436106100365760003560e01c80639b74042c1461003b578063f505377f1461006b575b600080fd5b61005560048036038101906100509190610219565b610087565b60405161006291906102d6565b60405180910390f35b6100856004803603810190610080919061042d565b610157565b005b60606000808373ffffffffffffffffffffffffffffffffffffffff1673ffffffffffffffffffffffffffffffffffffffff16815260200190815260200160002080546100d2906104b8565b80601f01602080910402602001604051908101604052809291908181526020018280546100fe906104b8565b801561014b5780601f106101205761010080835404028352916020019161014b565b820191906000526020600020905b81548152906001019060200180831161012e57829003601f168201915b50505050509050919050565b806000808473ffffffffffffffffffffffffffffffffffffffff1673ffffffffffffffffffffffffffffffffffffffff16815260200190815260200160002090816101a2919061069f565b505050565b6000604051905090565b600080fd5b600080fd5b600073ffffffffffffffffffffffffffffffffffffffff82169050919050565b60006101e6826101bb565b9050919050565b6101f6816101db565b811461020157600080fd5b50565b600081359050610213816101ed565b92915050565b60006020828403121561022f5761022e6101b1565b5b600061023d84828501610204565b91505092915050565b600081519050919050565b600082825260208201905092915050565b60005b83811015610280578082015181840152602081019050610265565b60008484015250505050565b6000601f19601f8301169050919050565b60006102a882610246565b6102b28185610251565b93506102c2818560208601610262565b6102cb8161028c565b840191505092915050565b600060208201905081810360008301526102f0818461029d565b905092915050565b600080fd5b600080fd5b7f4e487b7100000000000000000000000000000000000000000000000000000000600052604160045260246000fd5b61033a8261028c565b810181811067ffffffffffffffff8211171561035957610358610302565b5b80604052505050565b600061036c6101a7565b90506103788282610331565b919050565b600067ffffffffffffffff82111561039857610397610302565b5b6103a18261028c565b9050602081019050919050565b82818337600083830152505050565b60006103d06103cb8461037d565b610362565b9050828152602081018484840111156103ec576103eb6102fd565b5b6103f78482856103ae565b509392505050565b600082601f830112610414576104136102f8565b5b81356104248482602086016103bd565b91505092915050565b60008060408385031215610444576104436101b1565b5b600061045285828601610204565b925050602083013567ffffffffffffffff811115610473576104726101b6565b5b61047f858286016103ff565b9150509250929050565b7f4e487b7100000000000000000000000000000000000000000000000000000000600052602260045260246000fd5b600060028204905060018216806104d057607f821691505b6020821081036104e3576104e2610489565b5b50919050565b60008190508160005260206000209050919050565b60006020601f8301049050919050565b600082821b905092915050565b60006008830261054b7fffffffffffffffffffffffffffffffffffffffffffffffffffffffffffffffff8261050e565b610555868361050e565b95508019841693508086168417925050509392505050565b6000819050919050565b6000819050919050565b600061059c6105976105928461056d565b610577565b61056d565b9050919050565b6000819050919050565b6105b683610581565b6105ca6105c2826105a3565b84845461051b565b825550505050565b600090565b6105df6105d2565b6105ea8184846105ad565b505050565b5b8181101561060e576106036000826105d7565b6001810190506105f0565b5050565b601f82111561065357610624816104e9565b61062d846104fe565b8101602085101561063c578190505b610650610648856104fe565b8301826105ef565b50505b505050565b600082821c905092915050565b600061067660001984600802610658565b1980831691505092915050565b600061068f8383610665565b9150826002028217905092915050565b6106a882610246565b67ffffffffffffffff8111156106c1576106c0610302565b5b6106cb82546104b8565b6106d6828285610612565b600060209050601f83116001811461070957600084156106f7578287015190505b6107018582610683565b865550610769565b601f198416610717866104e9565b60005b8281101561073f5784890151825560018201915060208501945060208101905061071a565b8683101561075c5784890151610758601f891682610665565b8355505b6001600288020188555050505b50505050505056fea2646970667358221220d2589bd4967fbe6c8c92eb7d0b0595cfd2eb2432ca5bec3644055ff99add0a2864736f6c63430008110033",
  "linkReferences": {},
  "deployedLinkReferences": {}
}