{
  "_format": "hh-sol-artifact-1",
  "contractName": "DemeritSoulboundERC721",
  "sourceName": "contracts/soulboundERC721/DemeritSoulboundERC721.sol",
  "abi": [
    {
      "inputs": [
        {
          "internalType": "address",
          "name": "owner",
          "type": "address"
        },
        {
          "internalType": "address",
          "name": "soulboundStorage",
          "type": "address"
        },
        {
          "internalType": "address",
          "name": "demerit",
          "type": "address"
        },
        {
          "internalType": "string",
          "name": "name",
          "type": "string"
        },
        {
          "internalType": "string",
          "name": "symbol",
          "type": "string"
        },
        {
          "internalType": "string",
          "name": "uri",
          "type": "string"
        }
      ],
      "stateMutability": "nonpayable",
      "type": "constructor"
    },
    {
      "anonymous": false,
      "inputs": [
        {
          "indexed": true,
          "internalType": "address",
          "name": "owner",
          "type": "address"
        },
        {
          "indexed": true,
          "internalType": "address",
          "name": "approved",
          "type": "address"
        },
        {
          "indexed": true,
          "internalType": "uint256",
          "name": "tokenId",
          "type": "uint256"
        }
      ],
      "name": "Approval",
      "type": "event"
    },
    {
      "anonymous": false,
      "inputs": [
        {
          "indexed": true,
          "internalType": "address",
          "name": "owner",
          "type": "address"
        },
        {
          "indexed": true,
          "internalType": "address",
          "name": "operator",
          "type": "address"
        },
        {
          "indexed": false,
          "internalType": "bool",
          "name": "approved",
          "type": "bool"
        }
      ],
      "name": "ApprovalForAll",
      "type": "event"
    },
    {
      "anonymous": false,
      "inputs": [
        {
          "indexed": true,
          "internalType": "bytes32",
          "name": "role",
          "type": "bytes32"
        },
        {
          "indexed": true,
          "internalType": "bytes32",
          "name": "previousAdminRole",
          "type": "bytes32"
        },
        {
          "indexed": true,
          "internalType": "bytes32",
          "name": "newAdminRole",
          "type": "bytes32"
        }
      ],
      "name": "RoleAdminChanged",
      "type": "event"
    },
    {
      "anonymous": false,
      "inputs": [
        {
          "indexed": true,
          "internalType": "bytes32",
          "name": "role",
          "type": "bytes32"
        },
        {
          "indexed": true,
          "internalType": "address",
          "name": "account",
          "type": "address"
        },
        {
          "indexed": true,
          "internalType": "address",
          "name": "sender",
          "type": "address"
        }
      ],
      "name": "RoleGranted",
      "type": "event"
    },
    {
      "anonymous": false,
      "inputs": [
        {
          "indexed": true,
          "internalType": "bytes32",
          "name": "role",
          "type": "bytes32"
        },
        {
          "indexed": true,
          "internalType": "address",
          "name": "account",
          "type": "address"
        },
        {
          "indexed": true,
          "internalType": "address",
          "name": "sender",
          "type": "address"
        }
      ],
      "name": "RoleRevoked",
      "type": "event"
    },
    {
      "anonymous": false,
      "inputs": [
        {
          "indexed": true,
          "internalType": "address",
          "name": "from",
          "type": "address"
        },
        {
          "indexed": true,
          "internalType": "address",
          "name": "to",
          "type": "address"
        },
        {
          "indexed": true,
          "internalType": "uint256",
          "name": "tokenId",
          "type": "uint256"
        }
      ],
      "name": "Transfer",
      "type": "event"
    },
    {
      "inputs": [],
      "name": "DEFAULT_ADMIN_ROLE",
      "outputs": [
        {
          "internalType": "bytes32",
          "name": "",
          "type": "bytes32"
        }
      ],
      "stateMutability": "view",
      "type": "function"
    },
    {
      "inputs": [],
      "name": "ISSUER_ROLE",
      "outputs": [
        {
          "internalType": "bytes32",
          "name": "",
          "type": "bytes32"
        }
      ],
      "stateMutability": "view",
      "type": "function"
    },
    {
      "inputs": [
        {
          "internalType": "address",
          "name": "to",
          "type": "address"
        },
        {
          "internalType": "uint256",
          "name": "tokenId",
          "type": "uint256"
        }
      ],
      "name": "approve",
      "outputs": [],
      "stateMutability": "nonpayable",
      "type": "function"
    },
    {
      "inputs": [
        {
          "internalType": "address",
          "name": "receiver",
          "type": "address"
        },
        {
          "internalType": "uint64",
          "name": "dealId",
          "type": "uint64"
        }
      ],
      "name": "assign",
      "outputs": [],
      "stateMutability": "nonpayable",
      "type": "function"
    },
    {
      "inputs": [
        {
          "internalType": "address",
          "name": "owner",
          "type": "address"
        }
      ],
      "name": "balanceOf",
      "outputs": [
        {
          "internalType": "uint256",
          "name": "",
          "type": "uint256"
        }
      ],
      "stateMutability": "view",
      "type": "function"
    },
    {
      "inputs": [],
      "name": "claim",
      "outputs": [],
      "stateMutability": "nonpayable",
      "type": "function"
    },
    {
      "inputs": [
        {
          "internalType": "uint256",
          "name": "tokenId",
          "type": "uint256"
        }
      ],
      "name": "getApproved",
      "outputs": [
        {
          "internalType": "address",
          "name": "",
          "type": "address"
        }
      ],
      "stateMutability": "view",
      "type": "function"
    },
    {
      "inputs": [
        {
          "internalType": "bytes32",
          "name": "role",
          "type": "bytes32"
        }
      ],
      "name": "getRoleAdmin",
      "outputs": [
        {
          "internalType": "bytes32",
          "name": "",
          "type": "bytes32"
        }
      ],
      "stateMutability": "view",
      "type": "function"
    },
    {
      "inputs": [
        {
          "internalType": "bytes32",
          "name": "role",
          "type": "bytes32"
        },
        {
          "internalType": "address",
          "name": "account",
          "type": "address"
        }
      ],
      "name": "grantRole",
      "outputs": [],
      "stateMutability": "nonpayable",
      "type": "function"
    },
    {
      "inputs": [
        {
          "internalType": "bytes32",
          "name": "role",
          "type": "bytes32"
        },
        {
          "internalType": "address",
          "name": "account",
          "type": "address"
        }
      ],
      "name": "hasRole",
      "outputs": [
        {
          "internalType": "bool",
          "name": "",
          "type": "bool"
        }
      ],
      "stateMutability": "view",
      "type": "function"
    },
    {
      "inputs": [
        {
          "internalType": "address",
          "name": "owner",
          "type": "address"
        },
        {
          "internalType": "address",
          "name": "operator",
          "type": "address"
        }
      ],
      "name": "isApprovedForAll",
      "outputs": [
        {
          "internalType": "bool",
          "name": "",
          "type": "bool"
        }
      ],
      "stateMutability": "view",
      "type": "function"
    },
    {
      "inputs": [
        {
          "internalType": "address",
          "name": "receiver",
          "type": "address"
        }
      ],
      "name": "issue",
      "outputs": [],
      "stateMutability": "nonpayable",
      "type": "function"
    },
    {
      "inputs": [],
      "name": "name",
      "outputs": [
        {
          "internalType": "string",
          "name": "",
          "type": "string"
        }
      ],
      "stateMutability": "view",
      "type": "function"
    },
    {
      "inputs": [
        {
          "internalType": "uint256",
          "name": "tokenId",
          "type": "uint256"
        }
      ],
      "name": "ownerOf",
      "outputs": [
        {
          "internalType": "address",
          "name": "",
          "type": "address"
        }
      ],
      "stateMutability": "view",
      "type": "function"
    },
    {
      "inputs": [
        {
          "internalType": "bytes32",
          "name": "role",
          "type": "bytes32"
        },
        {
          "internalType": "address",
          "name": "account",
          "type": "address"
        }
      ],
      "name": "renounceRole",
      "outputs": [],
      "stateMutability": "nonpayable",
      "type": "function"
    },
    {
      "inputs": [
        {
          "internalType": "bytes32",
          "name": "role",
          "type": "bytes32"
        },
        {
          "internalType": "address",
          "name": "account",
          "type": "address"
        }
      ],
      "name": "revokeRole",
      "outputs": [],
      "stateMutability": "nonpayable",
      "type": "function"
    },
    {
      "inputs": [
        {
          "internalType": "address",
          "name": "from",
          "type": "address"
        },
        {
          "internalType": "address",
          "name": "to",
          "type": "address"
        },
        {
          "internalType": "uint256",
          "name": "tokenId",
          "type": "uint256"
        }
      ],
      "name": "safeTransferFrom",
      "outputs": [],
      "stateMutability": "nonpayable",
      "type": "function"
    },
    {
      "inputs": [
        {
          "internalType": "address",
          "name": "from",
          "type": "address"
        },
        {
          "internalType": "address",
          "name": "to",
          "type": "address"
        },
        {
          "internalType": "uint256",
          "name": "tokenId",
          "type": "uint256"
        },
        {
          "internalType": "bytes",
          "name": "data",
          "type": "bytes"
        }
      ],
      "name": "safeTransferFrom",
      "outputs": [],
      "stateMutability": "nonpayable",
      "type": "function"
    },
    {
      "inputs": [
        {
          "internalType": "address",
          "name": "operator",
          "type": "address"
        },
        {
          "internalType": "bool",
          "name": "approved",
          "type": "bool"
        }
      ],
      "name": "setApprovalForAll",
      "outputs": [],
      "stateMutability": "nonpayable",
      "type": "function"
    },
    {
      "inputs": [
        {
          "internalType": "bytes4",
          "name": "interfaceId",
          "type": "bytes4"
        }
      ],
      "name": "supportsInterface",
      "outputs": [
        {
          "internalType": "bool",
          "name": "",
          "type": "bool"
        }
      ],
      "stateMutability": "view",
      "type": "function"
    },
    {
      "inputs": [],
      "name": "symbol",
      "outputs": [
        {
          "internalType": "string",
          "name": "",
          "type": "string"
        }
      ],
      "stateMutability": "view",
      "type": "function"
    },
    {
      "inputs": [
        {
          "internalType": "uint256",
          "name": "tokenId",
          "type": "uint256"
        }
      ],
      "name": "tokenURI",
      "outputs": [
        {
          "internalType": "string",
          "name": "",
          "type": "string"
        }
      ],
      "stateMutability": "view",
      "type": "function"
    },
    {
      "inputs": [
        {
          "internalType": "address",
          "name": "from",
          "type": "address"
        },
        {
          "internalType": "address",
          "name": "to",
          "type": "address"
        },
        {
          "internalType": "uint256",
          "name": "tokenId",
          "type": "uint256"
        }
      ],
      "name": "transferFrom",
      "outputs": [],
      "stateMutability": "nonpayable",
      "type": "function"
    }
  ],
  "bytecode": "0x60806040523480156200001157600080fd5b5060405162003a3a38038062003a3a833981810160405281019062000037919062000691565b8585848484828281600090816200004f9190620009d5565b508060019081620000619190620009d5565b505050620000796000801b866200022b60201b60201c565b620000ab7f114e74f6ea3bd819998f78687bfcb11b140da08e9b7d222fa9c1f1ba1f2aa122866200022b60201b60201c565b84600960006101000a81548173ffffffffffffffffffffffffffffffffffffffff021916908373ffffffffffffffffffffffffffffffffffffffff16021790555080600a9081620000fd9190620009d5565b5083600b60006101000a81548173ffffffffffffffffffffffffffffffffffffffff021916908373ffffffffffffffffffffffffffffffffffffffff160217905550505050505085600960006101000a81548173ffffffffffffffffffffffffffffffffffffffff021916908373ffffffffffffffffffffffffffffffffffffffff16021790555080600a9081620001969190620009d5565b5083600c60006101000a81548173ffffffffffffffffffffffffffffffffffffffff021916908373ffffffffffffffffffffffffffffffffffffffff1602179055506200020a7f114e74f6ea3bd819998f78687bfcb11b140da08e9b7d222fa9c1f1ba1f2aa122876200024160201b60201c565b6200021f6000801b876200024160201b60201c565b50505050505062000abc565b6200023d82826200033460201b60201c565b5050565b6200025382826200042660201b60201c565b15620003305760006006600084815260200190815260200160002060000160008373ffffffffffffffffffffffffffffffffffffffff1673ffffffffffffffffffffffffffffffffffffffff16815260200190815260200160002060006101000a81548160ff021916908315150217905550620002d56200049160201b60201c565b73ffffffffffffffffffffffffffffffffffffffff168173ffffffffffffffffffffffffffffffffffffffff16837ff6391f5c32d9c69d2a47ea670b442974b53935d1edc7fd64eb21e047a839171b60405160405180910390a45b5050565b6200034682826200042660201b60201c565b620004225760016006600084815260200190815260200160002060000160008373ffffffffffffffffffffffffffffffffffffffff1673ffffffffffffffffffffffffffffffffffffffff16815260200190815260200160002060006101000a81548160ff021916908315150217905550620003c76200049160201b60201c565b73ffffffffffffffffffffffffffffffffffffffff168173ffffffffffffffffffffffffffffffffffffffff16837f2f8788117e7eff1d82e926ec794901d17c78024a50270940304540a733656f0d60405160405180910390a45b5050565b60006006600084815260200190815260200160002060000160008373ffffffffffffffffffffffffffffffffffffffff1673ffffffffffffffffffffffffffffffffffffffff16815260200190815260200160002060009054906101000a900460ff16905092915050565b600033905090565b6000604051905090565b600080fd5b600080fd5b600073ffffffffffffffffffffffffffffffffffffffff82169050919050565b6000620004da82620004ad565b9050919050565b620004ec81620004cd565b8114620004f857600080fd5b50565b6000815190506200050c81620004e1565b92915050565b600080fd5b600080fd5b6000601f19601f8301169050919050565b7f4e487b7100000000000000000000000000000000000000000000000000000000600052604160045260246000fd5b62000567826200051c565b810181811067ffffffffffffffff821117156200058957620005886200052d565b5b80604052505050565b60006200059e62000499565b9050620005ac82826200055c565b919050565b600067ffffffffffffffff821115620005cf57620005ce6200052d565b5b620005da826200051c565b9050602081019050919050565b60005b8381101562000607578082015181840152602081019050620005ea565b60008484015250505050565b60006200062a6200062484620005b1565b62000592565b90508281526020810184848401111562000649576200064862000517565b5b62000656848285620005e7565b509392505050565b600082601f83011262000676576200067562000512565b5b81516200068884826020860162000613565b91505092915050565b60008060008060008060c08789031215620006b157620006b0620004a3565b5b6000620006c189828a01620004fb565b9650506020620006d489828a01620004fb565b9550506040620006e789828a01620004fb565b945050606087015167ffffffffffffffff8111156200070b576200070a620004a8565b5b6200071989828a016200065e565b935050608087015167ffffffffffffffff8111156200073d576200073c620004a8565b5b6200074b89828a016200065e565b92505060a087015167ffffffffffffffff8111156200076f576200076e620004a8565b5b6200077d89828a016200065e565b9150509295509295509295565b600081519050919050565b7f4e487b7100000000000000000000000000000000000000000000000000000000600052602260045260246000fd5b60006002820490506001821680620007dd57607f821691505b602082108103620007f357620007f262000795565b5b50919050565b60008190508160005260206000209050919050565b60006020601f8301049050919050565b600082821b905092915050565b6000600883026200085d7fffffffffffffffffffffffffffffffffffffffffffffffffffffffffffffffff826200081e565b6200086986836200081e565b95508019841693508086168417925050509392505050565b6000819050919050565b6000819050919050565b6000620008b6620008b0620008aa8462000881565b6200088b565b62000881565b9050919050565b6000819050919050565b620008d28362000895565b620008ea620008e182620008bd565b8484546200082b565b825550505050565b600090565b62000901620008f2565b6200090e818484620008c7565b505050565b5b8181101562000936576200092a600082620008f7565b60018101905062000914565b5050565b601f82111562000985576200094f81620007f9565b6200095a846200080e565b810160208510156200096a578190505b6200098262000979856200080e565b83018262000913565b50505b505050565b600082821c905092915050565b6000620009aa600019846008026200098a565b1980831691505092915050565b6000620009c5838362000997565b9150826002028217905092915050565b620009e0826200078a565b67ffffffffffffffff811115620009fc57620009fb6200052d565b5b62000a088254620007c4565b62000a158282856200093a565b600060209050601f83116001811462000a4d576000841562000a38578287015190505b62000a448582620009b7565b86555062000ab4565b601f19841662000a5d86620007f9565b60005b8281101562000a875784890151825560018201915060208501945060208101905062000a60565b8683101562000aa7578489015162000aa3601f89168262000997565b8355505b6001600288020188555050505b505050505050565b612f6e8062000acc6000396000f3fe608060405234801561001057600080fd5b506004361061014d5760003560e01c806370a08231116100c3578063a217fddf1161007c578063a217fddf1461039a578063a22cb465146103b8578063b88d4fde146103d4578063c87b56dd146103f0578063d547741f14610420578063e985e9c51461043c5761014d565b806370a08231146102c657806371e928af146102f657806382aefa2414610312578063874d52161461033057806391d148541461034c57806395d89b411461037c5761014d565b8063248a9ca311610115578063248a9ca3146102085780632f2ff15d1461023857806336568abe1461025457806342842e0e146102705780634e71d92d1461028c5780636352211e146102965761014d565b806301ffc9a71461015257806306fdde0314610182578063081812fc146101a0578063095ea7b3146101d057806323b872dd146101ec575b600080fd5b61016c60048036038101906101679190611d99565b61046c565b6040516101799190611de1565b60405180910390f35b61018a61048e565b6040516101979190611e8c565b60405180910390f35b6101ba60048036038101906101b59190611ee4565b610520565b6040516101c79190611f52565b60405180910390f35b6101ea60048036038101906101e59190611f99565b610566565b005b61020660048036038101906102019190611fd9565b61067d565b005b610222600480360381019061021d9190612062565b6106b8565b60405161022f919061209e565b60405180910390f35b610252600480360381019061024d91906120b9565b6106d8565b005b61026e600480360381019061026991906120b9565b6106f9565b005b61028a60048036038101906102859190611fd9565b61077c565b005b6102946107b7565b005b6102b060048036038101906102ab9190611ee4565b610855565b6040516102bd9190611f52565b60405180910390f35b6102e060048036038101906102db91906120f9565b610906565b6040516102ed9190612135565b60405180910390f35b610310600480360381019061030b91906120f9565b6109bd565b005b61031a610ad4565b604051610327919061209e565b60405180910390f35b61034a60048036038101906103459190612190565b610af8565b005b610366600480360381019061036191906120b9565b610c75565b6040516103739190611de1565b60405180910390f35b610384610ce0565b6040516103919190611e8c565b60405180910390f35b6103a2610d72565b6040516103af919061209e565b60405180910390f35b6103d260048036038101906103cd91906121fc565b610d79565b005b6103ee60048036038101906103e99190612371565b610d8f565b005b61040a60048036038101906104059190611ee4565b610dca565b6040516104179190611e8c565b60405180910390f35b61043a600480360381019061043591906120b9565b610e5e565b005b610456600480360381019061045191906123f4565b610e7f565b6040516104639190611de1565b60405180910390f35b600061047782610f13565b80610487575061048682610ff5565b5b9050919050565b60606000805461049d90612463565b80601f01602080910402602001604051908101604052809291908181526020018280546104c990612463565b80156105165780601f106104eb57610100808354040283529160200191610516565b820191906000526020600020905b8154815290600101906020018083116104f957829003601f168201915b5050505050905090565b600061052b8261106f565b6004600083815260200190815260200160002060009054906101000a900473ffffffffffffffffffffffffffffffffffffffff169050919050565b600061057182610855565b90508073ffffffffffffffffffffffffffffffffffffffff168373ffffffffffffffffffffffffffffffffffffffff16036105e1576040517f08c379a00000000000000000000000000000000000000000000000000000000081526004016105d890612506565b60405180910390fd5b8073ffffffffffffffffffffffffffffffffffffffff166106006110ba565b73ffffffffffffffffffffffffffffffffffffffff16148061062f575061062e816106296110ba565b610e7f565b5b61066e576040517f08c379a000000000000000000000000000000000000000000000000000000000815260040161066590612598565b60405180910390fd5b61067883836110c2565b505050565b6040517f08c379a00000000000000000000000000000000000000000000000000000000081526004016106af9061262a565b60405180910390fd5b600060066000838152602001908152602001600020600101549050919050565b6106e1826106b8565b6106ea8161117b565b6106f4838361118f565b505050565b6107016110ba565b73ffffffffffffffffffffffffffffffffffffffff168173ffffffffffffffffffffffffffffffffffffffff161461076e576040517f08c379a0000000000000000000000000000000000000000000000000000000008152600401610765906126bc565b60405180910390fd5b6107788282611270565b5050565b6040517f08c379a00000000000000000000000000000000000000000000000000000000081526004016107ae9061262a565b60405180910390fd5b60011515600860003373ffffffffffffffffffffffffffffffffffffffff1673ffffffffffffffffffffffffffffffffffffffff16815260200190815260200160002060009054906101000a900460ff1615151461084a576040517f08c379a000000000000000000000000000000000000000000000000000000000815260040161084190612728565b60405180910390fd5b61085333611352565b565b6000806002600084815260200190815260200160002060009054906101000a900473ffffffffffffffffffffffffffffffffffffffff169050600073ffffffffffffffffffffffffffffffffffffffff168173ffffffffffffffffffffffffffffffffffffffff16036108fd576040517f08c379a00000000000000000000000000000000000000000000000000000000081526004016108f490612794565b60405180910390fd5b80915050919050565b60008073ffffffffffffffffffffffffffffffffffffffff168273ffffffffffffffffffffffffffffffffffffffff1603610976576040517f08c379a000000000000000000000000000000000000000000000000000000000815260040161096d90612826565b60405180910390fd5b600360008373ffffffffffffffffffffffffffffffffffffffff1673ffffffffffffffffffffffffffffffffffffffff168152602001908152602001600020549050919050565b7f114e74f6ea3bd819998f78687bfcb11b140da08e9b7d222fa9c1f1ba1f2aa1226109e78161117b565b6001600860008473ffffffffffffffffffffffffffffffffffffffff1673ffffffffffffffffffffffffffffffffffffffff16815260200190815260200160002060006101000a81548160ff021916908315150217905550600b60009054906101000a900473ffffffffffffffffffffffffffffffffffffffff1673ffffffffffffffffffffffffffffffffffffffff16637f12bbd63384306040518463ffffffff1660e01b8152600401610a9e93929190612846565b600060405180830381600087803b158015610ab857600080fd5b505af1158015610acc573d6000803e3d6000fd5b505050505050565b7f114e74f6ea3bd819998f78687bfcb11b140da08e9b7d222fa9c1f1ba1f2aa12281565b600c60009054906101000a900473ffffffffffffffffffffffffffffffffffffffff1673ffffffffffffffffffffffffffffffffffffffff166389b745ce83836040518363ffffffff1660e01b8152600401610b5592919061288c565b6020604051808303816000875af1158015610b74573d6000803e3d6000fd5b505050506040513d601f19601f82011682018060405250810190610b9891906128ca565b610bd7576040517f08c379a0000000000000000000000000000000000000000000000000000000008152600401610bce90612969565b60405180910390fd5b600b60009054906101000a900473ffffffffffffffffffffffffffffffffffffffff1673ffffffffffffffffffffffffffffffffffffffff16637f12bbd63384306040518463ffffffff1660e01b8152600401610c3693929190612846565b600060405180830381600087803b158015610c5057600080fd5b505af1158015610c64573d6000803e3d6000fd5b50505050610c7182611352565b5050565b60006006600084815260200190815260200160002060000160008373ffffffffffffffffffffffffffffffffffffffff1673ffffffffffffffffffffffffffffffffffffffff16815260200190815260200160002060009054906101000a900460ff16905092915050565b606060018054610cef90612463565b80601f0160208091040260200160405190810160405280929190818152602001828054610d1b90612463565b8015610d685780601f10610d3d57610100808354040283529160200191610d68565b820191906000526020600020905b815481529060010190602001808311610d4b57829003601f168201915b5050505050905090565b6000801b81565b610d8b610d846110ba565b838361140c565b5050565b6040517f08c379a0000000000000000000000000000000000000000000000000000000008152600401610dc19061262a565b60405180910390fd5b6060600a8054610dd990612463565b80601f0160208091040260200160405190810160405280929190818152602001828054610e0590612463565b8015610e525780601f10610e2757610100808354040283529160200191610e52565b820191906000526020600020905b815481529060010190602001808311610e3557829003601f168201915b50505050509050919050565b610e67826106b8565b610e708161117b565b610e7a8383611270565b505050565b6000600560008473ffffffffffffffffffffffffffffffffffffffff1673ffffffffffffffffffffffffffffffffffffffff16815260200190815260200160002060008373ffffffffffffffffffffffffffffffffffffffff1673ffffffffffffffffffffffffffffffffffffffff16815260200190815260200160002060009054906101000a900460ff16905092915050565b60007f80ac58cd000000000000000000000000000000000000000000000000000000007bffffffffffffffffffffffffffffffffffffffffffffffffffffffff1916827bffffffffffffffffffffffffffffffffffffffffffffffffffffffff19161480610fde57507f5b5e139f000000000000000000000000000000000000000000000000000000007bffffffffffffffffffffffffffffffffffffffffffffffffffffffff1916827bffffffffffffffffffffffffffffffffffffffffffffffffffffffff1916145b80610fee5750610fed82611578565b5b9050919050565b60007f7965db0b000000000000000000000000000000000000000000000000000000007bffffffffffffffffffffffffffffffffffffffffffffffffffffffff1916827bffffffffffffffffffffffffffffffffffffffffffffffffffffffff19161480611068575061106782610f13565b5b9050919050565b611078816115e2565b6110b7576040517f08c379a00000000000000000000000000000000000000000000000000000000081526004016110ae90612794565b60405180910390fd5b50565b600033905090565b816004600083815260200190815260200160002060006101000a81548173ffffffffffffffffffffffffffffffffffffffff021916908373ffffffffffffffffffffffffffffffffffffffff160217905550808273ffffffffffffffffffffffffffffffffffffffff1661113583610855565b73ffffffffffffffffffffffffffffffffffffffff167f8c5be1e5ebec7d5bd14f71427d1e84f3dd0314c0f7b2291e5b200ac8c7c3b92560405160405180910390a45050565b61118c816111876110ba565b61164e565b50565b6111998282610c75565b61126c5760016006600084815260200190815260200160002060000160008373ffffffffffffffffffffffffffffffffffffffff1673ffffffffffffffffffffffffffffffffffffffff16815260200190815260200160002060006101000a81548160ff0219169083151502179055506112116110ba565b73ffffffffffffffffffffffffffffffffffffffff168173ffffffffffffffffffffffffffffffffffffffff16837f2f8788117e7eff1d82e926ec794901d17c78024a50270940304540a733656f0d60405160405180910390a45b5050565b61127a8282610c75565b1561134e5760006006600084815260200190815260200160002060000160008373ffffffffffffffffffffffffffffffffffffffff1673ffffffffffffffffffffffffffffffffffffffff16815260200190815260200160002060006101000a81548160ff0219169083151502179055506112f36110ba565b73ffffffffffffffffffffffffffffffffffffffff168173ffffffffffffffffffffffffffffffffffffffff16837ff6391f5c32d9c69d2a47ea670b442974b53935d1edc7fd64eb21e047a839171b60405160405180910390a45b5050565b61135e816007546116eb565b600b60009054906101000a900473ffffffffffffffffffffffffffffffffffffffff1673ffffffffffffffffffffffffffffffffffffffff1663a0b6a24182306007546040518463ffffffff1660e01b81526004016113bf93929190612989565b600060405180830381600087803b1580156113d957600080fd5b505af11580156113ed573d6000803e3d6000fd5b5050505060076000815480929190611404906129ef565b919050555050565b8173ffffffffffffffffffffffffffffffffffffffff168373ffffffffffffffffffffffffffffffffffffffff160361147a576040517f08c379a000000000000000000000000000000000000000000000000000000000815260040161147190612a83565b60405180910390fd5b80600560008573ffffffffffffffffffffffffffffffffffffffff1673ffffffffffffffffffffffffffffffffffffffff16815260200190815260200160002060008473ffffffffffffffffffffffffffffffffffffffff1673ffffffffffffffffffffffffffffffffffffffff16815260200190815260200160002060006101000a81548160ff0219169083151502179055508173ffffffffffffffffffffffffffffffffffffffff168373ffffffffffffffffffffffffffffffffffffffff167f17307eab39ab6107e8899845ad3d59bd9653f200f220920489ca2b5937696c318360405161156b9190611de1565b60405180910390a3505050565b60007f01ffc9a7000000000000000000000000000000000000000000000000000000007bffffffffffffffffffffffffffffffffffffffffffffffffffffffff1916827bffffffffffffffffffffffffffffffffffffffffffffffffffffffff1916149050919050565b60008073ffffffffffffffffffffffffffffffffffffffff166002600084815260200190815260200160002060009054906101000a900473ffffffffffffffffffffffffffffffffffffffff1673ffffffffffffffffffffffffffffffffffffffff1614159050919050565b6116588282610c75565b6116e75761167d8173ffffffffffffffffffffffffffffffffffffffff166014611709565b61168b8360001c6020611709565b60405160200161169c929190612b77565b6040516020818303038152906040526040517f08c379a00000000000000000000000000000000000000000000000000000000081526004016116de9190611e8c565b60405180910390fd5b5050565b611705828260405180602001604052806000815250611945565b5050565b60606000600283600261171c9190612bb1565b6117269190612bf3565b67ffffffffffffffff81111561173f5761173e612246565b5b6040519080825280601f01601f1916602001820160405280156117715781602001600182028036833780820191505090505b5090507f3000000000000000000000000000000000000000000000000000000000000000816000815181106117a9576117a8612c27565b5b60200101907effffffffffffffffffffffffffffffffffffffffffffffffffffffffffffff1916908160001a9053507f78000000000000000000000000000000000000000000000000000000000000008160018151811061180d5761180c612c27565b5b60200101907effffffffffffffffffffffffffffffffffffffffffffffffffffffffffffff1916908160001a9053506000600184600261184d9190612bb1565b6118579190612bf3565b90505b60018111156118f7577f3031323334353637383961626364656600000000000000000000000000000000600f86166010811061189957611898612c27565b5b1a60f81b8282815181106118b0576118af612c27565b5b60200101907effffffffffffffffffffffffffffffffffffffffffffffffffffffffffffff1916908160001a905350600485901c9450806118f090612c56565b905061185a565b506000841461193b576040517f08c379a000000000000000000000000000000000000000000000000000000000815260040161193290612ccb565b60405180910390fd5b8091505092915050565b61194f83836119a0565b61195c6000848484611b79565b61199b576040517f08c379a000000000000000000000000000000000000000000000000000000000815260040161199290612d5d565b60405180910390fd5b505050565b600073ffffffffffffffffffffffffffffffffffffffff168273ffffffffffffffffffffffffffffffffffffffff1603611a0f576040517f08c379a0000000000000000000000000000000000000000000000000000000008152600401611a0690612dc9565b60405180910390fd5b611a18816115e2565b15611a58576040517f08c379a0000000000000000000000000000000000000000000000000000000008152600401611a4f90612e35565b60405180910390fd5b611a6460008383611d00565b6001600360008473ffffffffffffffffffffffffffffffffffffffff1673ffffffffffffffffffffffffffffffffffffffff1681526020019081526020016000206000828254611ab49190612bf3565b92505081905550816002600083815260200190815260200160002060006101000a81548173ffffffffffffffffffffffffffffffffffffffff021916908373ffffffffffffffffffffffffffffffffffffffff160217905550808273ffffffffffffffffffffffffffffffffffffffff16600073ffffffffffffffffffffffffffffffffffffffff167fddf252ad1be2c89b69c2b068fc378daa952ba7f163c4a11628f55a4df523b3ef60405160405180910390a4611b7560008383611d05565b5050565b6000611b9a8473ffffffffffffffffffffffffffffffffffffffff16611d0a565b15611cf3578373ffffffffffffffffffffffffffffffffffffffff1663150b7a02611bc36110ba565b8786866040518563ffffffff1660e01b8152600401611be59493929190612eaa565b6020604051808303816000875af1925050508015611c2157506040513d601f19601f82011682018060405250810190611c1e9190612f0b565b60015b611ca3573d8060008114611c51576040519150601f19603f3d011682016040523d82523d6000602084013e611c56565b606091505b506000815103611c9b576040517f08c379a0000000000000000000000000000000000000000000000000000000008152600401611c9290612d5d565b60405180910390fd5b805181602001fd5b63150b7a0260e01b7bffffffffffffffffffffffffffffffffffffffffffffffffffffffff1916817bffffffffffffffffffffffffffffffffffffffffffffffffffffffff191614915050611cf8565b600190505b949350505050565b505050565b505050565b6000808273ffffffffffffffffffffffffffffffffffffffff163b119050919050565b6000604051905090565b600080fd5b600080fd5b60007fffffffff0000000000000000000000000000000000000000000000000000000082169050919050565b611d7681611d41565b8114611d8157600080fd5b50565b600081359050611d9381611d6d565b92915050565b600060208284031215611daf57611dae611d37565b5b6000611dbd84828501611d84565b91505092915050565b60008115159050919050565b611ddb81611dc6565b82525050565b6000602082019050611df66000830184611dd2565b92915050565b600081519050919050565b600082825260208201905092915050565b60005b83811015611e36578082015181840152602081019050611e1b565b60008484015250505050565b6000601f19601f8301169050919050565b6000611e5e82611dfc565b611e688185611e07565b9350611e78818560208601611e18565b611e8181611e42565b840191505092915050565b60006020820190508181036000830152611ea68184611e53565b905092915050565b6000819050919050565b611ec181611eae565b8114611ecc57600080fd5b50565b600081359050611ede81611eb8565b92915050565b600060208284031215611efa57611ef9611d37565b5b6000611f0884828501611ecf565b91505092915050565b600073ffffffffffffffffffffffffffffffffffffffff82169050919050565b6000611f3c82611f11565b9050919050565b611f4c81611f31565b82525050565b6000602082019050611f676000830184611f43565b92915050565b611f7681611f31565b8114611f8157600080fd5b50565b600081359050611f9381611f6d565b92915050565b60008060408385031215611fb057611faf611d37565b5b6000611fbe85828601611f84565b9250506020611fcf85828601611ecf565b9150509250929050565b600080600060608486031215611ff257611ff1611d37565b5b600061200086828701611f84565b935050602061201186828701611f84565b925050604061202286828701611ecf565b9150509250925092565b6000819050919050565b61203f8161202c565b811461204a57600080fd5b50565b60008135905061205c81612036565b92915050565b60006020828403121561207857612077611d37565b5b60006120868482850161204d565b91505092915050565b6120988161202c565b82525050565b60006020820190506120b3600083018461208f565b92915050565b600080604083850312156120d0576120cf611d37565b5b60006120de8582860161204d565b92505060206120ef85828601611f84565b9150509250929050565b60006020828403121561210f5761210e611d37565b5b600061211d84828501611f84565b91505092915050565b61212f81611eae565b82525050565b600060208201905061214a6000830184612126565b92915050565b600067ffffffffffffffff82169050919050565b61216d81612150565b811461217857600080fd5b50565b60008135905061218a81612164565b92915050565b600080604083850312156121a7576121a6611d37565b5b60006121b585828601611f84565b92505060206121c68582860161217b565b9150509250929050565b6121d981611dc6565b81146121e457600080fd5b50565b6000813590506121f6816121d0565b92915050565b6000806040838503121561221357612212611d37565b5b600061222185828601611f84565b9250506020612232858286016121e7565b9150509250929050565b600080fd5b600080fd5b7f4e487b7100000000000000000000000000000000000000000000000000000000600052604160045260246000fd5b61227e82611e42565b810181811067ffffffffffffffff8211171561229d5761229c612246565b5b80604052505050565b60006122b0611d2d565b90506122bc8282612275565b919050565b600067ffffffffffffffff8211156122dc576122db612246565b5b6122e582611e42565b9050602081019050919050565b82818337600083830152505050565b600061231461230f846122c1565b6122a6565b9050828152602081018484840111156123305761232f612241565b5b61233b8482856122f2565b509392505050565b600082601f8301126123585761235761223c565b5b8135612368848260208601612301565b91505092915050565b6000806000806080858703121561238b5761238a611d37565b5b600061239987828801611f84565b94505060206123aa87828801611f84565b93505060406123bb87828801611ecf565b925050606085013567ffffffffffffffff8111156123dc576123db611d3c565b5b6123e887828801612343565b91505092959194509250565b6000806040838503121561240b5761240a611d37565b5b600061241985828601611f84565b925050602061242a85828601611f84565b9150509250929050565b7f4e487b7100000000000000000000000000000000000000000000000000000000600052602260045260246000fd5b6000600282049050600182168061247b57607f821691505b60208210810361248e5761248d612434565b5b50919050565b7f4552433732313a20617070726f76616c20746f2063757272656e74206f776e6560008201527f7200000000000000000000000000000000000000000000000000000000000000602082015250565b60006124f0602183611e07565b91506124fb82612494565b604082019050919050565b6000602082019050818103600083015261251f816124e3565b9050919050565b7f4552433732313a20617070726f76652063616c6c6572206973206e6f7420746f60008201527f6b656e206f776e6572206e6f7220617070726f76656420666f7220616c6c0000602082015250565b6000612582603e83611e07565b915061258d82612526565b604082019050919050565b600060208201905081810360008301526125b181612575565b9050919050565b7f4572726f723a20536f756c626f756e6420746f6b656e732063616e6e6f74206260008201527f65207472616e736665727265642e000000000000000000000000000000000000602082015250565b6000612614602e83611e07565b915061261f826125b8565b604082019050919050565b6000602082019050818103600083015261264381612607565b9050919050565b7f416363657373436f6e74726f6c3a2063616e206f6e6c792072656e6f756e636560008201527f20726f6c657320666f722073656c660000000000000000000000000000000000602082015250565b60006126a6602f83611e07565b91506126b18261264a565b604082019050919050565b600060208201905081810360008301526126d581612699565b9050919050565b7f4552524f523a204e6f20697373756520746f20636c61696d2e00000000000000600082015250565b6000612712601983611e07565b915061271d826126dc565b602082019050919050565b6000602082019050818103600083015261274181612705565b9050919050565b7f4552433732313a20696e76616c696420746f6b656e2049440000000000000000600082015250565b600061277e601883611e07565b915061278982612748565b602082019050919050565b600060208201905081810360008301526127ad81612771565b9050919050565b7f4552433732313a2061646472657373207a65726f206973206e6f74206120766160008201527f6c6964206f776e65720000000000000000000000000000000000000000000000602082015250565b6000612810602983611e07565b915061281b826127b4565b604082019050919050565b6000602082019050818103600083015261283f81612803565b9050919050565b600060608201905061285b6000830186611f43565b6128686020830185611f43565b6128756040830184611f43565b949350505050565b61288681612150565b82525050565b60006040820190506128a16000830185611f43565b6128ae602083018461287d565b9392505050565b6000815190506128c4816121d0565b92915050565b6000602082840312156128e0576128df611d37565b5b60006128ee848285016128b5565b91505092915050565b7f4572726f723a20526563656976657220646f6573206e6f74206465736572766560008201527f20746869732064656d657269742e000000000000000000000000000000000000602082015250565b6000612953602e83611e07565b915061295e826128f7565b604082019050919050565b6000602082019050818103600083015261298281612946565b9050919050565b600060608201905061299e6000830186611f43565b6129ab6020830185611f43565b6129b86040830184612126565b949350505050565b7f4e487b7100000000000000000000000000000000000000000000000000000000600052601160045260246000fd5b60006129fa82611eae565b91507fffffffffffffffffffffffffffffffffffffffffffffffffffffffffffffffff8203612a2c57612a2b6129c0565b5b600182019050919050565b7f4552433732313a20617070726f766520746f2063616c6c657200000000000000600082015250565b6000612a6d601983611e07565b9150612a7882612a37565b602082019050919050565b60006020820190508181036000830152612a9c81612a60565b9050919050565b600081905092915050565b7f416363657373436f6e74726f6c3a206163636f756e7420000000000000000000600082015250565b6000612ae4601783612aa3565b9150612aef82612aae565b601782019050919050565b6000612b0582611dfc565b612b0f8185612aa3565b9350612b1f818560208601611e18565b80840191505092915050565b7f206973206d697373696e6720726f6c6520000000000000000000000000000000600082015250565b6000612b61601183612aa3565b9150612b6c82612b2b565b601182019050919050565b6000612b8282612ad7565b9150612b8e8285612afa565b9150612b9982612b54565b9150612ba58284612afa565b91508190509392505050565b6000612bbc82611eae565b9150612bc783611eae565b9250828202612bd581611eae565b91508282048414831517612bec57612beb6129c0565b5b5092915050565b6000612bfe82611eae565b9150612c0983611eae565b9250828201905080821115612c2157612c206129c0565b5b92915050565b7f4e487b7100000000000000000000000000000000000000000000000000000000600052603260045260246000fd5b6000612c6182611eae565b915060008203612c7457612c736129c0565b5b600182039050919050565b7f537472696e67733a20686578206c656e67746820696e73756666696369656e74600082015250565b6000612cb5602083611e07565b9150612cc082612c7f565b602082019050919050565b60006020820190508181036000830152612ce481612ca8565b9050919050565b7f4552433732313a207472616e7366657220746f206e6f6e20455243373231526560008201527f63656976657220696d706c656d656e7465720000000000000000000000000000602082015250565b6000612d47603283611e07565b9150612d5282612ceb565b604082019050919050565b60006020820190508181036000830152612d7681612d3a565b9050919050565b7f4552433732313a206d696e7420746f20746865207a65726f2061646472657373600082015250565b6000612db3602083611e07565b9150612dbe82612d7d565b602082019050919050565b60006020820190508181036000830152612de281612da6565b9050919050565b7f4552433732313a20746f6b656e20616c7265616479206d696e74656400000000600082015250565b6000612e1f601c83611e07565b9150612e2a82612de9565b602082019050919050565b60006020820190508181036000830152612e4e81612e12565b9050919050565b600081519050919050565b600082825260208201905092915050565b6000612e7c82612e55565b612e868185612e60565b9350612e96818560208601611e18565b612e9f81611e42565b840191505092915050565b6000608082019050612ebf6000830187611f43565b612ecc6020830186611f43565b612ed96040830185612126565b8181036060830152612eeb8184612e71565b905095945050505050565b600081519050612f0581611d6d565b92915050565b600060208284031215612f2157612f20611d37565b5b6000612f2f84828501612ef6565b9150509291505056fea2646970667358221220c994e80f26911b62c49b10d74c77acb148fe464e5b5d86ceafd7b616ea7f42ea64736f6c63430008110033",
  "linkReferences": {},
  "deployedLinkReferences": {}
}