{
  "_format": "hh-sol-artifact-1",
  "contractName": "MarketAPI",
  "sourceName": "contracts/filecoinMockAPIs/MarketAPI.sol",
  "abi": [
    {
      "inputs": [],
      "stateMutability": "nonpayable",
      "type": "constructor"
    },
    {
      "inputs": [
        {
          "components": [
            {
              "internalType": "string",
              "name": "provider_or_client",
              "type": "string"
            }
          ],
          "internalType": "struct MarketTypes.AddBalanceParams",
          "name": "params",
          "type": "tuple"
        }
      ],
      "name": "add_balance",
      "outputs": [],
      "stateMutability": "payable",
      "type": "function"
    },
    {
      "inputs": [
        {
          "internalType": "uint64",
          "name": "id",
          "type": "uint64"
        },
        {
          "internalType": "string",
          "name": "label",
          "type": "string"
        },
        {
          "internalType": "int64",
          "name": "end",
          "type": "int64"
        }
      ],
      "name": "create_mock",
      "outputs": [],
      "stateMutability": "nonpayable",
      "type": "function"
    },
    {
      "inputs": [
        {
          "internalType": "string",
          "name": "addr",
          "type": "string"
        }
      ],
      "name": "get_balance",
      "outputs": [
        {
          "components": [
            {
              "internalType": "uint256",
              "name": "balance",
              "type": "uint256"
            },
            {
              "internalType": "uint256",
              "name": "locked",
              "type": "uint256"
            }
          ],
          "internalType": "struct MarketTypes.GetBalanceReturn",
          "name": "",
          "type": "tuple"
        }
      ],
      "stateMutability": "view",
      "type": "function"
    },
    {
      "inputs": [
        {
          "components": [
            {
              "internalType": "uint64",
              "name": "id",
              "type": "uint64"
            }
          ],
          "internalType": "struct MarketTypes.GetDealActivationParams",
          "name": "params",
          "type": "tuple"
        }
      ],
      "name": "get_deal_activation",
      "outputs": [
        {
          "components": [
            {
              "internalType": "int64",
              "name": "activated",
              "type": "int64"
            },
            {
              "internalType": "int64",
              "name": "terminated",
              "type": "int64"
            }
          ],
          "internalType": "struct MarketTypes.GetDealActivationReturn",
          "name": "",
          "type": "tuple"
        }
      ],
      "stateMutability": "view",
      "type": "function"
    },
    {
      "inputs": [
        {
          "components": [
            {
              "internalType": "uint64",
              "name": "id",
              "type": "uint64"
            }
          ],
          "internalType": "struct MarketTypes.GetDealClientParams",
          "name": "params",
          "type": "tuple"
        }
      ],
      "name": "get_deal_client",
      "outputs": [
        {
          "components": [
            {
              "internalType": "string",
              "name": "client",
              "type": "string"
            }
          ],
          "internalType": "struct MarketTypes.GetDealClientReturn",
          "name": "",
          "type": "tuple"
        }
      ],
      "stateMutability": "view",
      "type": "function"
    },
    {
      "inputs": [
        {
          "components": [
            {
              "internalType": "uint64",
              "name": "id",
              "type": "uint64"
            }
          ],
          "internalType": "struct MarketTypes.GetDealClientCollateralParams",
          "name": "params",
          "type": "tuple"
        }
      ],
      "name": "get_deal_client_collateral",
      "outputs": [
        {
          "components": [
            {
              "internalType": "uint256",
              "name": "collateral",
              "type": "uint256"
            }
          ],
          "internalType": "struct MarketTypes.GetDealClientCollateralReturn",
          "name": "",
          "type": "tuple"
        }
      ],
      "stateMutability": "view",
      "type": "function"
    },
    {
      "inputs": [
        {
          "components": [
            {
              "internalType": "uint64",
              "name": "id",
              "type": "uint64"
            }
          ],
          "internalType": "struct MarketTypes.GetDealDataCommitmentParams",
          "name": "params",
          "type": "tuple"
        }
      ],
      "name": "get_deal_data_commitment",
      "outputs": [
        {
          "components": [
            {
              "internalType": "bytes",
              "name": "data",
              "type": "bytes"
            },
            {
              "internalType": "uint64",
              "name": "size",
              "type": "uint64"
            }
          ],
          "internalType": "struct MarketTypes.GetDealDataCommitmentReturn",
          "name": "",
          "type": "tuple"
        }
      ],
      "stateMutability": "view",
      "type": "function"
    },
    {
      "inputs": [
        {
          "components": [
            {
              "internalType": "uint64",
              "name": "id",
              "type": "uint64"
            }
          ],
          "internalType": "struct MarketTypes.GetDealEpochPriceParams",
          "name": "params",
          "type": "tuple"
        }
      ],
      "name": "get_deal_epoch_price",
      "outputs": [
        {
          "components": [
            {
              "internalType": "uint256",
              "name": "price_per_epoch",
              "type": "uint256"
            }
          ],
          "internalType": "struct MarketTypes.GetDealEpochPriceReturn",
          "name": "",
          "type": "tuple"
        }
      ],
      "stateMutability": "view",
      "type": "function"
    },
    {
      "inputs": [
        {
          "components": [
            {
              "internalType": "uint64",
              "name": "id",
              "type": "uint64"
            }
          ],
          "internalType": "struct MarketTypes.GetDealLabelParams",
          "name": "params",
          "type": "tuple"
        }
      ],
      "name": "get_deal_label",
      "outputs": [
        {
          "components": [
            {
              "internalType": "string",
              "name": "label",
              "type": "string"
            }
          ],
          "internalType": "struct MarketTypes.GetDealLabelReturn",
          "name": "",
          "type": "tuple"
        }
      ],
      "stateMutability": "view",
      "type": "function"
    },
    {
      "inputs": [
        {
          "components": [
            {
              "internalType": "uint64",
              "name": "id",
              "type": "uint64"
            }
          ],
          "internalType": "struct MarketTypes.GetDealProviderParams",
          "name": "params",
          "type": "tuple"
        }
      ],
      "name": "get_deal_provider",
      "outputs": [
        {
          "components": [
            {
              "internalType": "string",
              "name": "provider",
              "type": "string"
            }
          ],
          "internalType": "struct MarketTypes.GetDealProviderReturn",
          "name": "",
          "type": "tuple"
        }
      ],
      "stateMutability": "view",
      "type": "function"
    },
    {
      "inputs": [
        {
          "components": [
            {
              "internalType": "uint64",
              "name": "id",
              "type": "uint64"
            }
          ],
          "internalType": "struct MarketTypes.GetDealProviderCollateralParams",
          "name": "params",
          "type": "tuple"
        }
      ],
      "name": "get_deal_provider_collateral",
      "outputs": [
        {
          "components": [
            {
              "internalType": "uint256",
              "name": "collateral",
              "type": "uint256"
            }
          ],
          "internalType": "struct MarketTypes.GetDealProviderCollateralReturn",
          "name": "",
          "type": "tuple"
        }
      ],
      "stateMutability": "view",
      "type": "function"
    },
    {
      "inputs": [
        {
          "components": [
            {
              "internalType": "uint64",
              "name": "id",
              "type": "uint64"
            }
          ],
          "internalType": "struct MarketTypes.GetDealTermParams",
          "name": "params",
          "type": "tuple"
        }
      ],
      "name": "get_deal_term",
      "outputs": [
        {
          "components": [
            {
              "internalType": "int64",
              "name": "start",
              "type": "int64"
            },
            {
              "internalType": "int64",
              "name": "end",
              "type": "int64"
            }
          ],
          "internalType": "struct MarketTypes.GetDealTermReturn",
          "name": "",
          "type": "tuple"
        }
      ],
      "stateMutability": "view",
      "type": "function"
    },
    {
      "inputs": [
        {
          "components": [
            {
              "internalType": "uint64",
              "name": "id",
              "type": "uint64"
            }
          ],
          "internalType": "struct MarketTypes.GetDealVerifiedParams",
          "name": "params",
          "type": "tuple"
        }
      ],
      "name": "get_deal_verified",
      "outputs": [
        {
          "components": [
            {
              "internalType": "bool",
              "name": "verified",
              "type": "bool"
            }
          ],
          "internalType": "struct MarketTypes.GetDealVerifiedReturn",
          "name": "",
          "type": "tuple"
        }
      ],
      "stateMutability": "view",
      "type": "function"
    },
    {
      "inputs": [
        {
          "internalType": "bytes",
          "name": "raw_auth_params",
          "type": "bytes"
        },
        {
          "internalType": "address",
          "name": "callee",
          "type": "address"
        }
      ],
      "name": "publish_deal",
      "outputs": [],
      "stateMutability": "nonpayable",
      "type": "function"
    },
    {
      "inputs": [
        {
          "components": [
            {
              "internalType": "string",
              "name": "provider_or_client",
              "type": "string"
            },
            {
              "internalType": "uint256",
              "name": "tokenAmount",
              "type": "uint256"
            }
          ],
          "internalType": "struct MarketTypes.WithdrawBalanceParams",
          "name": "params",
          "type": "tuple"
        }
      ],
      "name": "withdraw_balance",
      "outputs": [
        {
          "components": [
            {
              "internalType": "uint256",
              "name": "amount_withdrawn",
              "type": "uint256"
            }
          ],
          "internalType": "struct MarketTypes.WithdrawBalanceReturn",
          "name": "",
          "type": "tuple"
        }
      ],
      "stateMutability": "nonpayable",
      "type": "function"
    }
  ],
  "bytecode": "0x60806040523480156200001157600080fd5b50620000226200002860201b60201c565b620007b0565b62000032620003be565b6043816000019067ffffffffffffffff16908167ffffffffffffffff16815250506040518060600160405280604081526020016200310f60409139816020018190525062800000816040019067ffffffffffffffff16908167ffffffffffffffff168152505060008160600190151590811515815250506040518060400160405280600681526020017f743031313039000000000000000000000000000000000000000000000000000081525081608001819052506040518060400160405280600681526020017f74303131313300000000000000000000000000000000000000000000000000008152508160a001819052506040518060600160405280603481526020016200314f603491398160c0018190525061629d8160e0019060070b908160070b815250506208517e81610100019060070b908160070b815250506501001d1bf80081610120018181525050600081610140018181525050600081610160018181525050600181610180019060070b908160070b815250506000816101a0019060070b908160070b815250508060016000836000015167ffffffffffffffff1667ffffffffffffffff16815260200190815260200160002060008201518160000160006101000a81548167ffffffffffffffff021916908367ffffffffffffffff1602179055506020820151816001019081620002349190620006c9565b5060408201518160020160006101000a81548167ffffffffffffffff021916908367ffffffffffffffff16021790555060608201518160020160086101000a81548160ff02191690831515021790555060808201518160030190816200029b9190620006c9565b5060a0820151816004019081620002b39190620006c9565b5060c0820151816005019081620002cb9190620006c9565b5060e08201518160060160006101000a81548167ffffffffffffffff021916908360070b67ffffffffffffffff1602179055506101008201518160060160086101000a81548167ffffffffffffffff021916908360070b67ffffffffffffffff16021790555061012082015181600701556101408201518160080155610160820151816009015561018082015181600a0160006101000a81548167ffffffffffffffff021916908360070b67ffffffffffffffff1602179055506101a082015181600a0160086101000a81548167ffffffffffffffff021916908360070b67ffffffffffffffff16021790555090505050565b604051806101c00160405280600067ffffffffffffffff16815260200160608152602001600067ffffffffffffffff168152602001600015158152602001606081526020016060815260200160608152602001600060070b8152602001600060070b8152602001600081526020016000815260200160008152602001600060070b8152602001600060070b81525090565b600081519050919050565b7f4e487b7100000000000000000000000000000000000000000000000000000000600052604160045260246000fd5b7f4e487b7100000000000000000000000000000000000000000000000000000000600052602260045260246000fd5b60006002820490506001821680620004d157607f821691505b602082108103620004e757620004e662000489565b5b50919050565b60008190508160005260206000209050919050565b60006020601f8301049050919050565b600082821b905092915050565b600060088302620005517fffffffffffffffffffffffffffffffffffffffffffffffffffffffffffffffff8262000512565b6200055d868362000512565b95508019841693508086168417925050509392505050565b6000819050919050565b6000819050919050565b6000620005aa620005a46200059e8462000575565b6200057f565b62000575565b9050919050565b6000819050919050565b620005c68362000589565b620005de620005d582620005b1565b8484546200051f565b825550505050565b600090565b620005f5620005e6565b62000602818484620005bb565b505050565b5b818110156200062a576200061e600082620005eb565b60018101905062000608565b5050565b601f82111562000679576200064381620004ed565b6200064e8462000502565b810160208510156200065e578190505b620006766200066d8562000502565b83018262000607565b50505b505050565b600082821c905092915050565b60006200069e600019846008026200067e565b1980831691505092915050565b6000620006b983836200068b565b9150826002028217905092915050565b620006d4826200044f565b67ffffffffffffffff811115620006f057620006ef6200045a565b5b620006fc8254620004b8565b620007098282856200062e565b600060209050601f8311600181146200074157600084156200072c578287015190505b620007388582620006ab565b865550620007a8565b601f1984166200075186620004ed565b60005b828110156200077b5784890151825560018201915060208501945060208101905062000754565b868310156200079b578489015162000797601f8916826200068b565b8355505b6001600288020188555050505b505050505050565b61294f80620007c06000396000f3fe6080604052600436106100e85760003560e01c806388671e0a1161008a578063ad36f18411610059578063ad36f18414610378578063d75fb3c8146103b5578063ebf66ef1146103de578063f241560c146103fa576100e8565b806388671e0a146102845780638b7f02fd146102c1578063991e04a4146102fe5780639f4b7c7d1461033b576100e8565b80635c4ddef3116100c65780635c4ddef3146101a457806365a9b4a0146101e157806377bb7bfc1461021e5780638777b7c814610247576100e8565b806313178dc1146100ed5780631a2811e71461012a57806355d9560914610167575b600080fd5b3480156100f957600080fd5b50610114600480360381019061010f9190611720565b610437565b6040516101219190611794565b60405180910390f35b34801561013657600080fd5b50610151600480360381019061014c919061182b565b61051a565b60405161015e9190611874565b60405180910390f35b34801561017357600080fd5b5061018e600480360381019061018991906118cb565b6105bf565b60405161019b91906119a1565b60405180910390f35b3480156101b057600080fd5b506101cb60048036038101906101c691906119ff565b6106ec565b6040516101d89190611a63565b60405180910390f35b3480156101ed57600080fd5b5061020860048036038101906102039190611a7e565b6107a0565b6040516102159190611af6565b60405180910390f35b34801561022a57600080fd5b5061024560048036038101906102409190611b4a565b6107e8565b005b34801561025357600080fd5b5061026e60048036038101906102699190611bf5565b610b59565b60405161027b9190611c3e565b60405180910390f35b34801561029057600080fd5b506102ab60048036038101906102a69190611c95565b610bfe565b6040516102b89190611cde565b60405180910390f35b3480156102cd57600080fd5b506102e860048036038101906102e39190611d35565b610ca3565b6040516102f59190611d8c565b60405180910390f35b34801561030a57600080fd5b5061032560048036038101906103209190611dea565b610dd0565b6040516103329190611eb8565b60405180910390f35b34801561034757600080fd5b50610362600480360381019061035d9190611f16565b610ece565b60405161036f9190611f6d565b60405180910390f35b34801561038457600080fd5b5061039f600480360381019061039a9190611fcb565b610ffb565b6040516103ac9190612036565b60405180910390f35b3480156103c157600080fd5b506103dc60048036038101906103d79190612150565b6110f4565b005b6103f860048036038101906103f39190612204565b61123c565b005b34801561040657600080fd5b50610421600480360381019061041c9190612289565b611278565b60405161042e91906122e5565b60405180910390f35b61043f611371565b6000808360000151604051610454919061233c565b908152602001604051809103902054905082602001516000846000015160405161047e919061233c565b908152602001604051809103902054106104db578260200151600084600001516040516104ab919061233c565b908152602001604051809103902060008282546104c89190612382565b9250508190555082602001519050610503565b60008084600001516040516104f0919061233c565b9081526020016040518091039020819055505b604051806020016040528082815250915050919050565b610522611384565b600060016000846000015167ffffffffffffffff1667ffffffffffffffff16815260200190815260200160002060000160009054906101000a900467ffffffffffffffff1667ffffffffffffffff161161057b57600080fd5b604051806020016040528060016000856000015167ffffffffffffffff1667ffffffffffffffff168152602001908152602001600020600801548152509050919050565b6105c7611397565b600060016000846000015167ffffffffffffffff1667ffffffffffffffff16815260200190815260200160002060000160009054906101000a900467ffffffffffffffff1667ffffffffffffffff161161062057600080fd5b604051806020016040528060016000856000015167ffffffffffffffff1667ffffffffffffffff1681526020019081526020016000206004018054610664906123e5565b80601f0160208091040260200160405190810160405280929190818152602001828054610690906123e5565b80156106dd5780601f106106b2576101008083540402835291602001916106dd565b820191906000526020600020905b8154815290600101906020018083116106c057829003601f168201915b50505050508152509050919050565b6106f46113aa565b600060016000846000015167ffffffffffffffff1667ffffffffffffffff16815260200190815260200160002060000160009054906101000a900467ffffffffffffffff1667ffffffffffffffff161161074d57600080fd5b604051806020016040528060016000856000015167ffffffffffffffff1667ffffffffffffffff16815260200190815260200160002060020160089054906101000a900460ff1615158152509050919050565b6107a86113bf565b600080836040516107b9919061233c565b908152602001604051809103902054905060405180604001604052808281526020016000815250915050919050565b6107f06113d9565b83816000019067ffffffffffffffff16908167ffffffffffffffff16815250506040518060600160405280604081526020016128da60409139816020018190525062800000816040019067ffffffffffffffff16908167ffffffffffffffff168152505060008160600190151590811515815250506040518060400160405280600681526020017f743031313039000000000000000000000000000000000000000000000000000081525081608001819052506040518060400160405280600681526020017f74303131313300000000000000000000000000000000000000000000000000008152508160a00181905250828160c0018190525061629d8160e0019060070b908160070b815250508181610100019060070b908160070b815250506501001d1bf80081610120018181525050600081610140018181525050600081610160018181525050600181610180019060070b908160070b815250506000816101a0019060070b908160070b815250508060016000836000015167ffffffffffffffff1667ffffffffffffffff16815260200190815260200160002060008201518160000160006101000a81548167ffffffffffffffff021916908367ffffffffffffffff16021790555060208201518160010190816109d291906125c2565b5060408201518160020160006101000a81548167ffffffffffffffff021916908367ffffffffffffffff16021790555060608201518160020160086101000a81548160ff0219169083151502179055506080820151816003019081610a3791906125c2565b5060a0820151816004019081610a4d91906125c2565b5060c0820151816005019081610a6391906125c2565b5060e08201518160060160006101000a81548167ffffffffffffffff021916908360070b67ffffffffffffffff1602179055506101008201518160060160086101000a81548167ffffffffffffffff021916908360070b67ffffffffffffffff16021790555061012082015181600701556101408201518160080155610160820151816009015561018082015181600a0160006101000a81548167ffffffffffffffff021916908360070b67ffffffffffffffff1602179055506101a082015181600a0160086101000a81548167ffffffffffffffff021916908360070b67ffffffffffffffff16021790555090505050505050565b610b6161146a565b600060016000846000015167ffffffffffffffff1667ffffffffffffffff16815260200190815260200160002060000160009054906101000a900467ffffffffffffffff1667ffffffffffffffff1611610bba57600080fd5b604051806020016040528060016000856000015167ffffffffffffffff1667ffffffffffffffff168152602001908152602001600020600901548152509050919050565b610c0661147d565b600060016000846000015167ffffffffffffffff1667ffffffffffffffff16815260200190815260200160002060000160009054906101000a900467ffffffffffffffff1667ffffffffffffffff1611610c5f57600080fd5b604051806020016040528060016000856000015167ffffffffffffffff1667ffffffffffffffff168152602001908152602001600020600701548152509050919050565b610cab611490565b600060016000846000015167ffffffffffffffff1667ffffffffffffffff16815260200190815260200160002060000160009054906101000a900467ffffffffffffffff1667ffffffffffffffff1611610d0457600080fd5b604051806020016040528060016000856000015167ffffffffffffffff1667ffffffffffffffff1681526020019081526020016000206003018054610d48906123e5565b80601f0160208091040260200160405190810160405280929190818152602001828054610d74906123e5565b8015610dc15780601f10610d9657610100808354040283529160200191610dc1565b820191906000526020600020905b815481529060010190602001808311610da457829003601f168201915b50505050508152509050919050565b610dd86114a3565b600060016000846000015167ffffffffffffffff1667ffffffffffffffff16815260200190815260200160002060000160009054906101000a900467ffffffffffffffff1667ffffffffffffffff1611610e3157600080fd5b60405180604001604052806040518060400160405280600881526020017f3078313131313131000000000000000000000000000000000000000000000000815250815260200160016000856000015167ffffffffffffffff1667ffffffffffffffff16815260200190815260200160002060020160009054906101000a900467ffffffffffffffff1667ffffffffffffffff168152509050919050565b610ed66114c7565b600060016000846000015167ffffffffffffffff1667ffffffffffffffff16815260200190815260200160002060000160009054906101000a900467ffffffffffffffff1667ffffffffffffffff1611610f2f57600080fd5b604051806020016040528060016000856000015167ffffffffffffffff1667ffffffffffffffff1681526020019081526020016000206005018054610f73906123e5565b80601f0160208091040260200160405190810160405280929190818152602001828054610f9f906123e5565b8015610fec5780601f10610fc157610100808354040283529160200191610fec565b820191906000526020600020905b815481529060010190602001808311610fcf57829003601f168201915b50505050508152509050919050565b6110036114da565b600060016000846000015167ffffffffffffffff1667ffffffffffffffff16815260200190815260200160002060000160009054906101000a900467ffffffffffffffff1667ffffffffffffffff161161105c57600080fd5b604051806040016040528060016000856000015167ffffffffffffffff1667ffffffffffffffff16815260200190815260200160002060060160009054906101000a900460070b60070b815260200160016000856000015167ffffffffffffffff1667ffffffffffffffff16815260200190815260200160002060060160089054906101000a900460070b60070b8152509050919050565b60008173ffffffffffffffffffffffffffffffffffffffff166000639d8b06788560405160240161112793929190612771565b6040516020818303038152906040527f868e10c4000000000000000000000000000000000000000000000000000000007bffffffffffffffffffffffffffffffffffffffffffffffffffffffff19166020820180517bffffffffffffffffffffffffffffffffffffffffffffffffffffffff83818316178352505050506040516111b191906127eb565b6000604051808303816000865af19150503d80600081146111ee576040519150601f19603f3d011682016040523d82523d6000602084013e6111f3565b606091505b5050905080611237576040517f08c379a000000000000000000000000000000000000000000000000000000000815260040161122e90612885565b60405180910390fd5b505050565b3460008260000151604051611251919061233c565b9081526020016040518091039020600082825461126e91906128a5565b9250508190555050565b6112806114fa565b600060016000846000015167ffffffffffffffff1667ffffffffffffffff16815260200190815260200160002060000160009054906101000a900467ffffffffffffffff1667ffffffffffffffff16116112d957600080fd5b604051806040016040528060016000856000015167ffffffffffffffff1667ffffffffffffffff168152602001908152602001600020600a0160009054906101000a900460070b60070b815260200160016000856000015167ffffffffffffffff1667ffffffffffffffff168152602001908152602001600020600a0160089054906101000a900460070b60070b8152509050919050565b6040518060200160405280600081525090565b6040518060200160405280600081525090565b6040518060200160405280606081525090565b60405180602001604052806000151581525090565b604051806040016040528060008152602001600081525090565b604051806101c00160405280600067ffffffffffffffff16815260200160608152602001600067ffffffffffffffff168152602001600015158152602001606081526020016060815260200160608152602001600060070b8152602001600060070b8152602001600081526020016000815260200160008152602001600060070b8152602001600060070b81525090565b6040518060200160405280600081525090565b6040518060200160405280600081525090565b6040518060200160405280606081525090565b604051806040016040528060608152602001600067ffffffffffffffff1681525090565b6040518060200160405280606081525090565b6040518060400160405280600060070b8152602001600060070b81525090565b6040518060400160405280600060070b8152602001600060070b81525090565b6000604051905090565b600080fd5b600080fd5b600080fd5b6000601f19601f8301169050919050565b7f4e487b7100000000000000000000000000000000000000000000000000000000600052604160045260246000fd5b61157c82611533565b810181811067ffffffffffffffff8211171561159b5761159a611544565b5b80604052505050565b60006115ae61151a565b90506115ba8282611573565b919050565b600080fd5b600080fd5b600080fd5b600067ffffffffffffffff8211156115e9576115e8611544565b5b6115f282611533565b9050602081019050919050565b82818337600083830152505050565b600061162161161c846115ce565b6115a4565b90508281526020810184848401111561163d5761163c6115c9565b5b6116488482856115ff565b509392505050565b600082601f830112611665576116646115c4565b5b813561167584826020860161160e565b91505092915050565b6000819050919050565b6116918161167e565b811461169c57600080fd5b50565b6000813590506116ae81611688565b92915050565b6000604082840312156116ca576116c961152e565b5b6116d460406115a4565b9050600082013567ffffffffffffffff8111156116f4576116f36115bf565b5b61170084828501611650565b60008301525060206117148482850161169f565b60208301525092915050565b60006020828403121561173657611735611524565b5b600082013567ffffffffffffffff81111561175457611753611529565b5b611760848285016116b4565b91505092915050565b6117728161167e565b82525050565b60208201600082015161178e6000850182611769565b50505050565b60006020820190506117a96000830184611778565b92915050565b600067ffffffffffffffff82169050919050565b6117cc816117af565b81146117d757600080fd5b50565b6000813590506117e9816117c3565b92915050565b6000602082840312156118055761180461152e565b5b61180f60206115a4565b9050600061181f848285016117da565b60008301525092915050565b60006020828403121561184157611840611524565b5b600061184f848285016117ef565b91505092915050565b60208201600082015161186e6000850182611769565b50505050565b60006020820190506118896000830184611858565b92915050565b6000602082840312156118a5576118a461152e565b5b6118af60206115a4565b905060006118bf848285016117da565b60008301525092915050565b6000602082840312156118e1576118e0611524565b5b60006118ef8482850161188f565b91505092915050565b600081519050919050565b600082825260208201905092915050565b60005b83811015611932578082015181840152602081019050611917565b60008484015250505050565b6000611949826118f8565b6119538185611903565b9350611963818560208601611914565b61196c81611533565b840191505092915050565b60006020830160008301518482036000860152611994828261193e565b9150508091505092915050565b600060208201905081810360008301526119bb8184611977565b905092915050565b6000602082840312156119d9576119d861152e565b5b6119e360206115a4565b905060006119f3848285016117da565b60008301525092915050565b600060208284031215611a1557611a14611524565b5b6000611a23848285016119c3565b91505092915050565b60008115159050919050565b611a4181611a2c565b82525050565b602082016000820151611a5d6000850182611a38565b50505050565b6000602082019050611a786000830184611a47565b92915050565b600060208284031215611a9457611a93611524565b5b600082013567ffffffffffffffff811115611ab257611ab1611529565b5b611abe84828501611650565b91505092915050565b604082016000820151611add6000850182611769565b506020820151611af06020850182611769565b50505050565b6000604082019050611b0b6000830184611ac7565b92915050565b60008160070b9050919050565b611b2781611b11565b8114611b3257600080fd5b50565b600081359050611b4481611b1e565b92915050565b600080600060608486031215611b6357611b62611524565b5b6000611b71868287016117da565b935050602084013567ffffffffffffffff811115611b9257611b91611529565b5b611b9e86828701611650565b9250506040611baf86828701611b35565b9150509250925092565b600060208284031215611bcf57611bce61152e565b5b611bd960206115a4565b90506000611be9848285016117da565b60008301525092915050565b600060208284031215611c0b57611c0a611524565b5b6000611c1984828501611bb9565b91505092915050565b602082016000820151611c386000850182611769565b50505050565b6000602082019050611c536000830184611c22565b92915050565b600060208284031215611c6f57611c6e61152e565b5b611c7960206115a4565b90506000611c89848285016117da565b60008301525092915050565b600060208284031215611cab57611caa611524565b5b6000611cb984828501611c59565b91505092915050565b602082016000820151611cd86000850182611769565b50505050565b6000602082019050611cf36000830184611cc2565b92915050565b600060208284031215611d0f57611d0e61152e565b5b611d1960206115a4565b90506000611d29848285016117da565b60008301525092915050565b600060208284031215611d4b57611d4a611524565b5b6000611d5984828501611cf9565b91505092915050565b60006020830160008301518482036000860152611d7f828261193e565b9150508091505092915050565b60006020820190508181036000830152611da68184611d62565b905092915050565b600060208284031215611dc457611dc361152e565b5b611dce60206115a4565b90506000611dde848285016117da565b60008301525092915050565b600060208284031215611e0057611dff611524565b5b6000611e0e84828501611dae565b91505092915050565b600081519050919050565b600082825260208201905092915050565b6000611e3e82611e17565b611e488185611e22565b9350611e58818560208601611914565b611e6181611533565b840191505092915050565b611e75816117af565b82525050565b60006040830160008301518482036000860152611e988282611e33565b9150506020830151611ead6020860182611e6c565b508091505092915050565b60006020820190508181036000830152611ed28184611e7b565b905092915050565b600060208284031215611ef057611eef61152e565b5b611efa60206115a4565b90506000611f0a848285016117da565b60008301525092915050565b600060208284031215611f2c57611f2b611524565b5b6000611f3a84828501611eda565b91505092915050565b60006020830160008301518482036000860152611f60828261193e565b9150508091505092915050565b60006020820190508181036000830152611f878184611f43565b905092915050565b600060208284031215611fa557611fa461152e565b5b611faf60206115a4565b90506000611fbf848285016117da565b60008301525092915050565b600060208284031215611fe157611fe0611524565b5b6000611fef84828501611f8f565b91505092915050565b61200181611b11565b82525050565b60408201600082015161201d6000850182611ff8565b5060208201516120306020850182611ff8565b50505050565b600060408201905061204b6000830184612007565b92915050565b600067ffffffffffffffff82111561206c5761206b611544565b5b61207582611533565b9050602081019050919050565b600061209561209084612051565b6115a4565b9050828152602081018484840111156120b1576120b06115c9565b5b6120bc8482856115ff565b509392505050565b600082601f8301126120d9576120d86115c4565b5b81356120e9848260208601612082565b91505092915050565b600073ffffffffffffffffffffffffffffffffffffffff82169050919050565b600061211d826120f2565b9050919050565b61212d81612112565b811461213857600080fd5b50565b60008135905061214a81612124565b92915050565b6000806040838503121561216757612166611524565b5b600083013567ffffffffffffffff81111561218557612184611529565b5b612191858286016120c4565b92505060206121a28582860161213b565b9150509250929050565b6000602082840312156121c2576121c161152e565b5b6121cc60206115a4565b9050600082013567ffffffffffffffff8111156121ec576121eb6115bf565b5b6121f884828501611650565b60008301525092915050565b60006020828403121561221a57612219611524565b5b600082013567ffffffffffffffff81111561223857612237611529565b5b612244848285016121ac565b91505092915050565b6000602082840312156122635761226261152e565b5b61226d60206115a4565b9050600061227d848285016117da565b60008301525092915050565b60006020828403121561229f5761229e611524565b5b60006122ad8482850161224d565b91505092915050565b6040820160008201516122cc6000850182611ff8565b5060208201516122df6020850182611ff8565b50505050565b60006040820190506122fa60008301846122b6565b92915050565b600081905092915050565b6000612316826118f8565b6123208185612300565b9350612330818560208601611914565b80840191505092915050565b6000612348828461230b565b915081905092915050565b7f4e487b7100000000000000000000000000000000000000000000000000000000600052601160045260246000fd5b600061238d8261167e565b91506123988361167e565b92508282039050818111156123b0576123af612353565b5b92915050565b7f4e487b7100000000000000000000000000000000000000000000000000000000600052602260045260246000fd5b600060028204905060018216806123fd57607f821691505b6020821081036124105761240f6123b6565b5b50919050565b60008190508160005260206000209050919050565b60006020601f8301049050919050565b600082821b905092915050565b6000600883026124787fffffffffffffffffffffffffffffffffffffffffffffffffffffffffffffffff8261243b565b612482868361243b565b95508019841693508086168417925050509392505050565b6000819050919050565b60006124bf6124ba6124b58461167e565b61249a565b61167e565b9050919050565b6000819050919050565b6124d9836124a4565b6124ed6124e5826124c6565b848454612448565b825550505050565b600090565b6125026124f5565b61250d8184846124d0565b505050565b5b81811015612531576125266000826124fa565b600181019050612513565b5050565b601f8211156125765761254781612416565b6125508461242b565b8101602085101561255f578190505b61257361256b8561242b565b830182612512565b50505b505050565b600082821c905092915050565b60006125996000198460080261257b565b1980831691505092915050565b60006125b28383612588565b9150826002028217905092915050565b6125cb826118f8565b67ffffffffffffffff8111156125e4576125e3611544565b5b6125ee82546123e5565b6125f9828285612535565b600060209050601f83116001811461262c576000841561261a578287015190505b61262485826125a6565b86555061268c565b601f19841661263a86612416565b60005b828110156126625784890151825560018201915060208501945060208101905061263d565b8683101561267f578489015161267b601f891682612588565b8355505b6001600288020188555050505b505050505050565b6000819050919050565b600060ff82169050919050565b60006126c66126c16126bc84612694565b61249a565b61269e565b9050919050565b6126d6816126ab565b82525050565b6000819050919050565b600063ffffffff82169050919050565b600061271161270c612707846126dc565b61249a565b6126e6565b9050919050565b612721816126f6565b82525050565b600082825260208201905092915050565b600061274382611e17565b61274d8185612727565b935061275d818560208601611914565b61276681611533565b840191505092915050565b600060608201905061278660008301866126cd565b6127936020830185612718565b81810360408301526127a58184612738565b9050949350505050565b600081905092915050565b60006127c582611e17565b6127cf81856127af565b93506127df818560208601611914565b80840191505092915050565b60006127f782846127ba565b915081905092915050565b600082825260208201905092915050565b7f636c69656e7420636f6e7472616374206661696c656420746f20617574686f7260008201527f697a65206465616c207075626c69736800000000000000000000000000000000602082015250565b600061286f603083612802565b915061287a82612813565b604082019050919050565b6000602082019050818103600083015261289e81612862565b9050919050565b60006128b08261167e565b91506128bb8361167e565b92508282019050808211156128d3576128d2612353565b5b9291505056fe6261676136656134736561716c6b67366d737335717335366a7174616a673579637268706b6a326236366367646b756b6632716a6d6d7a7a3661796b73756369a26469706673582212208d9efdb32e2411c126496d6ca6e577a3f36c8c482d268e9c7bcce04efb946e7264736f6c634300081100336261676136656134736561716c6b67366d737335717335366a7174616a673579637268706b6a326236366367646b756b6632716a6d6d7a7a3661796b737563696d41584367354149673859425862466a7464427931695a6a704459417752537430656c474c463547765471756c4569693156634d",
  "linkReferences": {},
  "deployedLinkReferences": {}
}