{
  "_format": "hh-sol-artifact-1",
  "contractName": "OpenFactory",
  "sourceName": "contracts/erc721Factory/OpenFactory.sol",
  "abi": [
    {
      "inputs": [
        {
          "internalType": "address",
          "name": "soulboundStorage",
          "type": "address"
        }
      ],
      "stateMutability": "nonpayable",
      "type": "constructor"
    },
    {
      "inputs": [
        {
          "internalType": "string",
          "name": "name",
          "type": "string"
        },
        {
          "internalType": "string",
          "name": "symbol",
          "type": "string"
        },
        {
          "internalType": "string",
          "name": "uri",
          "type": "string"
        }
      ],
      "name": "createCollection",
      "outputs": [
        {
          "internalType": "address",
          "name": "",
          "type": "address"
        }
      ],
      "stateMutability": "nonpayable",
      "type": "function"
    }
  ],
  "bytecode": "0x608060405234801561001057600080fd5b50604051613dd6380380613dd6833981810160405281019061003291906100de565b8080600160006101000a81548173ffffffffffffffffffffffffffffffffffffffff021916908373ffffffffffffffffffffffffffffffffffffffff160217905550505061010b565b600080fd5b600073ffffffffffffffffffffffffffffffffffffffff82169050919050565b60006100ab82610080565b9050919050565b6100bb816100a0565b81146100c657600080fd5b50565b6000815190506100d8816100b2565b92915050565b6000602082840312156100f4576100f361007b565b5b6000610102848285016100c9565b91505092915050565b613cbc8061011a6000396000f3fe60806040523480156200001157600080fd5b50600436106200002e5760003560e01c8063ece86c211462000033575b600080fd5b6200005160048036038101906200004b919062000433565b62000069565b60405162000060919062000531565b60405180910390f35b60006200007c8484846000801b62000085565b90509392505050565b60008033600160009054906101000a900473ffffffffffffffffffffffffffffffffffffffff16878787604051620000bd90620002af565b620000cd959493929190620005d7565b604051809103906000f080158015620000ea573d6000803e3d6000fd5b509050620000fa86823362000106565b80915050949350505050565b600073ffffffffffffffffffffffffffffffffffffffff166000846040516200013091906200068b565b908152602001604051809103902060009054906101000a900473ffffffffffffffffffffffffffffffffffffffff1673ffffffffffffffffffffffffffffffffffffffff1614620001b8576040517f08c379a0000000000000000000000000000000000000000000000000000000008152600401620001af906200071a565b60405180910390fd5b81600084604051620001cb91906200068b565b908152602001604051809103902060006101000a81548173ffffffffffffffffffffffffffffffffffffffff021916908373ffffffffffffffffffffffffffffffffffffffff160217905550600160009054906101000a900473ffffffffffffffffffffffffffffffffffffffff1673ffffffffffffffffffffffffffffffffffffffff166359f225d282846040518363ffffffff1660e01b8152600401620002769291906200073c565b600060405180830381600087803b1580156200029157600080fd5b505af1158015620002a6573d6000803e3d6000fd5b50505050505050565b61351d806200076a83390190565b6000604051905090565b600080fd5b600080fd5b600080fd5b600080fd5b6000601f19601f8301169050919050565b7f4e487b7100000000000000000000000000000000000000000000000000000000600052604160045260246000fd5b6200032682620002db565b810181811067ffffffffffffffff82111715620003485762000347620002ec565b5b80604052505050565b60006200035d620002bd565b90506200036b82826200031b565b919050565b600067ffffffffffffffff8211156200038e576200038d620002ec565b5b6200039982620002db565b9050602081019050919050565b82818337600083830152505050565b6000620003cc620003c68462000370565b62000351565b905082815260208101848484011115620003eb57620003ea620002d6565b5b620003f8848285620003a6565b509392505050565b600082601f830112620004185762000417620002d1565b5b81356200042a848260208601620003b5565b91505092915050565b6000806000606084860312156200044f576200044e620002c7565b5b600084013567ffffffffffffffff81111562000470576200046f620002cc565b5b6200047e8682870162000400565b935050602084013567ffffffffffffffff811115620004a257620004a1620002cc565b5b620004b08682870162000400565b925050604084013567ffffffffffffffff811115620004d457620004d3620002cc565b5b620004e28682870162000400565b9150509250925092565b600073ffffffffffffffffffffffffffffffffffffffff82169050919050565b60006200051982620004ec565b9050919050565b6200052b816200050c565b82525050565b600060208201905062000548600083018462000520565b92915050565b600081519050919050565b600082825260208201905092915050565b60005b838110156200058a5780820151818401526020810190506200056d565b60008484015250505050565b6000620005a3826200054e565b620005af818562000559565b9350620005c18185602086016200056a565b620005cc81620002db565b840191505092915050565b600060a082019050620005ee600083018862000520565b620005fd602083018762000520565b818103604083015262000611818662000596565b9050818103606083015262000627818562000596565b905081810360808301526200063d818462000596565b90509695505050505050565b600081905092915050565b600062000661826200054e565b6200066d818562000649565b93506200067f8185602086016200056a565b80840191505092915050565b600062000699828462000654565b915081905092915050565b7f4572726f723a204120666163746f72792068617320616c72656164792062656560008201527f6e207265676973746572656420746f206e616d652e0000000000000000000000602082015250565b60006200070260358362000559565b91506200070f82620006a4565b604082019050919050565b600060208201905081810360008301526200073581620006f3565b9050919050565b600060408201905062000753600083018562000520565b62000762602083018462000520565b939250505056fe60806040523480156200001157600080fd5b506040516200351d3803806200351d8339818101604052810190620000379190620004b8565b828281600090816200004a9190620007e8565b5080600190816200005c9190620007e8565b505050620000746000801b866200014560201b60201c565b620000a67f114e74f6ea3bd819998f78687bfcb11b140da08e9b7d222fa9c1f1ba1f2aa122866200014560201b60201c565b84600960006101000a81548173ffffffffffffffffffffffffffffffffffffffff021916908373ffffffffffffffffffffffffffffffffffffffff16021790555080600a9081620000f89190620007e8565b5083600b60006101000a81548173ffffffffffffffffffffffffffffffffffffffff021916908373ffffffffffffffffffffffffffffffffffffffff1602179055505050505050620008cf565b6200015782826200015b60201b60201c565b5050565b6200016d82826200024d60201b60201c565b620002495760016006600084815260200190815260200160002060000160008373ffffffffffffffffffffffffffffffffffffffff1673ffffffffffffffffffffffffffffffffffffffff16815260200190815260200160002060006101000a81548160ff021916908315150217905550620001ee620002b860201b60201c565b73ffffffffffffffffffffffffffffffffffffffff168173ffffffffffffffffffffffffffffffffffffffff16837f2f8788117e7eff1d82e926ec794901d17c78024a50270940304540a733656f0d60405160405180910390a45b5050565b60006006600084815260200190815260200160002060000160008373ffffffffffffffffffffffffffffffffffffffff1673ffffffffffffffffffffffffffffffffffffffff16815260200190815260200160002060009054906101000a900460ff16905092915050565b600033905090565b6000604051905090565b600080fd5b600080fd5b600073ffffffffffffffffffffffffffffffffffffffff82169050919050565b60006200030182620002d4565b9050919050565b6200031381620002f4565b81146200031f57600080fd5b50565b600081519050620003338162000308565b92915050565b600080fd5b600080fd5b6000601f19601f8301169050919050565b7f4e487b7100000000000000000000000000000000000000000000000000000000600052604160045260246000fd5b6200038e8262000343565b810181811067ffffffffffffffff82111715620003b057620003af62000354565b5b80604052505050565b6000620003c5620002c0565b9050620003d3828262000383565b919050565b600067ffffffffffffffff821115620003f657620003f562000354565b5b620004018262000343565b9050602081019050919050565b60005b838110156200042e57808201518184015260208101905062000411565b60008484015250505050565b6000620004516200044b84620003d8565b620003b9565b90508281526020810184848401111562000470576200046f6200033e565b5b6200047d8482856200040e565b509392505050565b600082601f8301126200049d576200049c62000339565b5b8151620004af8482602086016200043a565b91505092915050565b600080600080600060a08688031215620004d757620004d6620002ca565b5b6000620004e78882890162000322565b9550506020620004fa8882890162000322565b945050604086015167ffffffffffffffff8111156200051e576200051d620002cf565b5b6200052c8882890162000485565b935050606086015167ffffffffffffffff81111562000550576200054f620002cf565b5b6200055e8882890162000485565b925050608086015167ffffffffffffffff811115620005825762000581620002cf565b5b620005908882890162000485565b9150509295509295909350565b600081519050919050565b7f4e487b7100000000000000000000000000000000000000000000000000000000600052602260045260246000fd5b60006002820490506001821680620005f057607f821691505b602082108103620006065762000605620005a8565b5b50919050565b60008190508160005260206000209050919050565b60006020601f8301049050919050565b600082821b905092915050565b600060088302620006707fffffffffffffffffffffffffffffffffffffffffffffffffffffffffffffffff8262000631565b6200067c868362000631565b95508019841693508086168417925050509392505050565b6000819050919050565b6000819050919050565b6000620006c9620006c3620006bd8462000694565b6200069e565b62000694565b9050919050565b6000819050919050565b620006e583620006a8565b620006fd620006f482620006d0565b8484546200063e565b825550505050565b600090565b6200071462000705565b62000721818484620006da565b505050565b5b8181101562000749576200073d6000826200070a565b60018101905062000727565b5050565b601f821115620007985762000762816200060c565b6200076d8462000621565b810160208510156200077d578190505b620007956200078c8562000621565b83018262000726565b50505b505050565b600082821c905092915050565b6000620007bd600019846008026200079d565b1980831691505092915050565b6000620007d88383620007aa565b9150826002028217905092915050565b620007f3826200059d565b67ffffffffffffffff8111156200080f576200080e62000354565b5b6200081b8254620005d7565b620008288282856200074d565b600060209050601f8311600181146200086057600084156200084b578287015190505b620008578582620007ca565b865550620008c7565b601f19841662000870866200060c565b60005b828110156200089a5784890151825560018201915060208501945060208101905062000873565b86831015620008ba5784890151620008b6601f891682620007aa565b8355505b6001600288020188555050505b505050505050565b612c3e80620008df6000396000f3fe608060405234801561001057600080fd5b50600436106101425760003560e01c806370a08231116100b8578063a217fddf1161007c578063a217fddf14610373578063a22cb46514610391578063b88d4fde146103ad578063c87b56dd146103c9578063d547741f146103f9578063e985e9c51461041557610142565b806370a08231146102bb57806371e928af146102eb57806382aefa241461030757806391d148541461032557806395d89b411461035557610142565b8063248a9ca31161010a578063248a9ca3146101fd5780632f2ff15d1461022d57806336568abe1461024957806342842e0e146102655780634e71d92d146102815780636352211e1461028b57610142565b806301ffc9a71461014757806306fdde0314610177578063081812fc14610195578063095ea7b3146101c557806323b872dd146101e1575b600080fd5b610161600480360381019061015c9190611bf5565b610445565b60405161016e9190611c3d565b60405180910390f35b61017f610467565b60405161018c9190611ce8565b60405180910390f35b6101af60048036038101906101aa9190611d40565b6104f9565b6040516101bc9190611dae565b60405180910390f35b6101df60048036038101906101da9190611df5565b61053f565b005b6101fb60048036038101906101f69190611e35565b610656565b005b61021760048036038101906102129190611ebe565b610691565b6040516102249190611efa565b60405180910390f35b61024760048036038101906102429190611f15565b6106b1565b005b610263600480360381019061025e9190611f15565b6106d2565b005b61027f600480360381019061027a9190611e35565b610755565b005b610289610790565b005b6102a560048036038101906102a09190611d40565b61082e565b6040516102b29190611dae565b60405180910390f35b6102d560048036038101906102d09190611f55565b6108df565b6040516102e29190611f91565b60405180910390f35b61030560048036038101906103009190611f55565b610996565b005b61030f610aad565b60405161031c9190611efa565b60405180910390f35b61033f600480360381019061033a9190611f15565b610ad1565b60405161034c9190611c3d565b60405180910390f35b61035d610b3c565b60405161036a9190611ce8565b60405180910390f35b61037b610bce565b6040516103889190611efa565b60405180910390f35b6103ab60048036038101906103a69190611fd8565b610bd5565b005b6103c760048036038101906103c2919061214d565b610beb565b005b6103e360048036038101906103de9190611d40565b610c26565b6040516103f09190611ce8565b60405180910390f35b610413600480360381019061040e9190611f15565b610cba565b005b61042f600480360381019061042a91906121d0565b610cdb565b60405161043c9190611c3d565b60405180910390f35b600061045082610d6f565b80610460575061045f82610e51565b5b9050919050565b6060600080546104769061223f565b80601f01602080910402602001604051908101604052809291908181526020018280546104a29061223f565b80156104ef5780601f106104c4576101008083540402835291602001916104ef565b820191906000526020600020905b8154815290600101906020018083116104d257829003601f168201915b5050505050905090565b600061050482610ecb565b6004600083815260200190815260200160002060009054906101000a900473ffffffffffffffffffffffffffffffffffffffff169050919050565b600061054a8261082e565b90508073ffffffffffffffffffffffffffffffffffffffff168373ffffffffffffffffffffffffffffffffffffffff16036105ba576040517f08c379a00000000000000000000000000000000000000000000000000000000081526004016105b1906122e2565b60405180910390fd5b8073ffffffffffffffffffffffffffffffffffffffff166105d9610f16565b73ffffffffffffffffffffffffffffffffffffffff161480610608575061060781610602610f16565b610cdb565b5b610647576040517f08c379a000000000000000000000000000000000000000000000000000000000815260040161063e90612374565b60405180910390fd5b6106518383610f1e565b505050565b6040517f08c379a000000000000000000000000000000000000000000000000000000000815260040161068890612406565b60405180910390fd5b600060066000838152602001908152602001600020600101549050919050565b6106ba82610691565b6106c381610fd7565b6106cd8383610feb565b505050565b6106da610f16565b73ffffffffffffffffffffffffffffffffffffffff168173ffffffffffffffffffffffffffffffffffffffff1614610747576040517f08c379a000000000000000000000000000000000000000000000000000000000815260040161073e90612498565b60405180910390fd5b61075182826110cc565b5050565b6040517f08c379a000000000000000000000000000000000000000000000000000000000815260040161078790612406565b60405180910390fd5b60011515600860003373ffffffffffffffffffffffffffffffffffffffff1673ffffffffffffffffffffffffffffffffffffffff16815260200190815260200160002060009054906101000a900460ff16151514610823576040517f08c379a000000000000000000000000000000000000000000000000000000000815260040161081a90612504565b60405180910390fd5b61082c336111ae565b565b6000806002600084815260200190815260200160002060009054906101000a900473ffffffffffffffffffffffffffffffffffffffff169050600073ffffffffffffffffffffffffffffffffffffffff168173ffffffffffffffffffffffffffffffffffffffff16036108d6576040517f08c379a00000000000000000000000000000000000000000000000000000000081526004016108cd90612570565b60405180910390fd5b80915050919050565b60008073ffffffffffffffffffffffffffffffffffffffff168273ffffffffffffffffffffffffffffffffffffffff160361094f576040517f08c379a000000000000000000000000000000000000000000000000000000000815260040161094690612602565b60405180910390fd5b600360008373ffffffffffffffffffffffffffffffffffffffff1673ffffffffffffffffffffffffffffffffffffffff168152602001908152602001600020549050919050565b7f114e74f6ea3bd819998f78687bfcb11b140da08e9b7d222fa9c1f1ba1f2aa1226109c081610fd7565b6001600860008473ffffffffffffffffffffffffffffffffffffffff1673ffffffffffffffffffffffffffffffffffffffff16815260200190815260200160002060006101000a81548160ff021916908315150217905550600b60009054906101000a900473ffffffffffffffffffffffffffffffffffffffff1673ffffffffffffffffffffffffffffffffffffffff16637f12bbd63384306040518463ffffffff1660e01b8152600401610a7793929190612622565b600060405180830381600087803b158015610a9157600080fd5b505af1158015610aa5573d6000803e3d6000fd5b505050505050565b7f114e74f6ea3bd819998f78687bfcb11b140da08e9b7d222fa9c1f1ba1f2aa12281565b60006006600084815260200190815260200160002060000160008373ffffffffffffffffffffffffffffffffffffffff1673ffffffffffffffffffffffffffffffffffffffff16815260200190815260200160002060009054906101000a900460ff16905092915050565b606060018054610b4b9061223f565b80601f0160208091040260200160405190810160405280929190818152602001828054610b779061223f565b8015610bc45780601f10610b9957610100808354040283529160200191610bc4565b820191906000526020600020905b815481529060010190602001808311610ba757829003601f168201915b5050505050905090565b6000801b81565b610be7610be0610f16565b8383611268565b5050565b6040517f08c379a0000000000000000000000000000000000000000000000000000000008152600401610c1d90612406565b60405180910390fd5b6060600a8054610c359061223f565b80601f0160208091040260200160405190810160405280929190818152602001828054610c619061223f565b8015610cae5780601f10610c8357610100808354040283529160200191610cae565b820191906000526020600020905b815481529060010190602001808311610c9157829003601f168201915b50505050509050919050565b610cc382610691565b610ccc81610fd7565b610cd683836110cc565b505050565b6000600560008473ffffffffffffffffffffffffffffffffffffffff1673ffffffffffffffffffffffffffffffffffffffff16815260200190815260200160002060008373ffffffffffffffffffffffffffffffffffffffff1673ffffffffffffffffffffffffffffffffffffffff16815260200190815260200160002060009054906101000a900460ff16905092915050565b60007f80ac58cd000000000000000000000000000000000000000000000000000000007bffffffffffffffffffffffffffffffffffffffffffffffffffffffff1916827bffffffffffffffffffffffffffffffffffffffffffffffffffffffff19161480610e3a57507f5b5e139f000000000000000000000000000000000000000000000000000000007bffffffffffffffffffffffffffffffffffffffffffffffffffffffff1916827bffffffffffffffffffffffffffffffffffffffffffffffffffffffff1916145b80610e4a5750610e49826113d4565b5b9050919050565b60007f7965db0b000000000000000000000000000000000000000000000000000000007bffffffffffffffffffffffffffffffffffffffffffffffffffffffff1916827bffffffffffffffffffffffffffffffffffffffffffffffffffffffff19161480610ec45750610ec382610d6f565b5b9050919050565b610ed48161143e565b610f13576040517f08c379a0000000000000000000000000000000000000000000000000000000008152600401610f0a90612570565b60405180910390fd5b50565b600033905090565b816004600083815260200190815260200160002060006101000a81548173ffffffffffffffffffffffffffffffffffffffff021916908373ffffffffffffffffffffffffffffffffffffffff160217905550808273ffffffffffffffffffffffffffffffffffffffff16610f918361082e565b73ffffffffffffffffffffffffffffffffffffffff167f8c5be1e5ebec7d5bd14f71427d1e84f3dd0314c0f7b2291e5b200ac8c7c3b92560405160405180910390a45050565b610fe881610fe3610f16565b6114aa565b50565b610ff58282610ad1565b6110c85760016006600084815260200190815260200160002060000160008373ffffffffffffffffffffffffffffffffffffffff1673ffffffffffffffffffffffffffffffffffffffff16815260200190815260200160002060006101000a81548160ff02191690831515021790555061106d610f16565b73ffffffffffffffffffffffffffffffffffffffff168173ffffffffffffffffffffffffffffffffffffffff16837f2f8788117e7eff1d82e926ec794901d17c78024a50270940304540a733656f0d60405160405180910390a45b5050565b6110d68282610ad1565b156111aa5760006006600084815260200190815260200160002060000160008373ffffffffffffffffffffffffffffffffffffffff1673ffffffffffffffffffffffffffffffffffffffff16815260200190815260200160002060006101000a81548160ff02191690831515021790555061114f610f16565b73ffffffffffffffffffffffffffffffffffffffff168173ffffffffffffffffffffffffffffffffffffffff16837ff6391f5c32d9c69d2a47ea670b442974b53935d1edc7fd64eb21e047a839171b60405160405180910390a45b5050565b6111ba81600754611547565b600b60009054906101000a900473ffffffffffffffffffffffffffffffffffffffff1673ffffffffffffffffffffffffffffffffffffffff1663a0b6a24182306007546040518463ffffffff1660e01b815260040161121b93929190612659565b600060405180830381600087803b15801561123557600080fd5b505af1158015611249573d6000803e3d6000fd5b5050505060076000815480929190611260906126bf565b919050555050565b8173ffffffffffffffffffffffffffffffffffffffff168373ffffffffffffffffffffffffffffffffffffffff16036112d6576040517f08c379a00000000000000000000000000000000000000000000000000000000081526004016112cd90612753565b60405180910390fd5b80600560008573ffffffffffffffffffffffffffffffffffffffff1673ffffffffffffffffffffffffffffffffffffffff16815260200190815260200160002060008473ffffffffffffffffffffffffffffffffffffffff1673ffffffffffffffffffffffffffffffffffffffff16815260200190815260200160002060006101000a81548160ff0219169083151502179055508173ffffffffffffffffffffffffffffffffffffffff168373ffffffffffffffffffffffffffffffffffffffff167f17307eab39ab6107e8899845ad3d59bd9653f200f220920489ca2b5937696c31836040516113c79190611c3d565b60405180910390a3505050565b60007f01ffc9a7000000000000000000000000000000000000000000000000000000007bffffffffffffffffffffffffffffffffffffffffffffffffffffffff1916827bffffffffffffffffffffffffffffffffffffffffffffffffffffffff1916149050919050565b60008073ffffffffffffffffffffffffffffffffffffffff166002600084815260200190815260200160002060009054906101000a900473ffffffffffffffffffffffffffffffffffffffff1673ffffffffffffffffffffffffffffffffffffffff1614159050919050565b6114b48282610ad1565b611543576114d98173ffffffffffffffffffffffffffffffffffffffff166014611565565b6114e78360001c6020611565565b6040516020016114f8929190612847565b6040516020818303038152906040526040517f08c379a000000000000000000000000000000000000000000000000000000000815260040161153a9190611ce8565b60405180910390fd5b5050565b6115618282604051806020016040528060008152506117a1565b5050565b6060600060028360026115789190612881565b61158291906128c3565b67ffffffffffffffff81111561159b5761159a612022565b5b6040519080825280601f01601f1916602001820160405280156115cd5781602001600182028036833780820191505090505b5090507f300000000000000000000000000000000000000000000000000000000000000081600081518110611605576116046128f7565b5b60200101907effffffffffffffffffffffffffffffffffffffffffffffffffffffffffffff1916908160001a9053507f780000000000000000000000000000000000000000000000000000000000000081600181518110611669576116686128f7565b5b60200101907effffffffffffffffffffffffffffffffffffffffffffffffffffffffffffff1916908160001a905350600060018460026116a99190612881565b6116b391906128c3565b90505b6001811115611753577f3031323334353637383961626364656600000000000000000000000000000000600f8616601081106116f5576116f46128f7565b5b1a60f81b82828151811061170c5761170b6128f7565b5b60200101907effffffffffffffffffffffffffffffffffffffffffffffffffffffffffffff1916908160001a905350600485901c94508061174c90612926565b90506116b6565b5060008414611797576040517f08c379a000000000000000000000000000000000000000000000000000000000815260040161178e9061299b565b60405180910390fd5b8091505092915050565b6117ab83836117fc565b6117b860008484846119d5565b6117f7576040517f08c379a00000000000000000000000000000000000000000000000000000000081526004016117ee90612a2d565b60405180910390fd5b505050565b600073ffffffffffffffffffffffffffffffffffffffff168273ffffffffffffffffffffffffffffffffffffffff160361186b576040517f08c379a000000000000000000000000000000000000000000000000000000000815260040161186290612a99565b60405180910390fd5b6118748161143e565b156118b4576040517f08c379a00000000000000000000000000000000000000000000000000000000081526004016118ab90612b05565b60405180910390fd5b6118c060008383611b5c565b6001600360008473ffffffffffffffffffffffffffffffffffffffff1673ffffffffffffffffffffffffffffffffffffffff168152602001908152602001600020600082825461191091906128c3565b92505081905550816002600083815260200190815260200160002060006101000a81548173ffffffffffffffffffffffffffffffffffffffff021916908373ffffffffffffffffffffffffffffffffffffffff160217905550808273ffffffffffffffffffffffffffffffffffffffff16600073ffffffffffffffffffffffffffffffffffffffff167fddf252ad1be2c89b69c2b068fc378daa952ba7f163c4a11628f55a4df523b3ef60405160405180910390a46119d160008383611b61565b5050565b60006119f68473ffffffffffffffffffffffffffffffffffffffff16611b66565b15611b4f578373ffffffffffffffffffffffffffffffffffffffff1663150b7a02611a1f610f16565b8786866040518563ffffffff1660e01b8152600401611a419493929190612b7a565b6020604051808303816000875af1925050508015611a7d57506040513d601f19601f82011682018060405250810190611a7a9190612bdb565b60015b611aff573d8060008114611aad576040519150601f19603f3d011682016040523d82523d6000602084013e611ab2565b606091505b506000815103611af7576040517f08c379a0000000000000000000000000000000000000000000000000000000008152600401611aee90612a2d565b60405180910390fd5b805181602001fd5b63150b7a0260e01b7bffffffffffffffffffffffffffffffffffffffffffffffffffffffff1916817bffffffffffffffffffffffffffffffffffffffffffffffffffffffff191614915050611b54565b600190505b949350505050565b505050565b505050565b6000808273ffffffffffffffffffffffffffffffffffffffff163b119050919050565b6000604051905090565b600080fd5b600080fd5b60007fffffffff0000000000000000000000000000000000000000000000000000000082169050919050565b611bd281611b9d565b8114611bdd57600080fd5b50565b600081359050611bef81611bc9565b92915050565b600060208284031215611c0b57611c0a611b93565b5b6000611c1984828501611be0565b91505092915050565b60008115159050919050565b611c3781611c22565b82525050565b6000602082019050611c526000830184611c2e565b92915050565b600081519050919050565b600082825260208201905092915050565b60005b83811015611c92578082015181840152602081019050611c77565b60008484015250505050565b6000601f19601f8301169050919050565b6000611cba82611c58565b611cc48185611c63565b9350611cd4818560208601611c74565b611cdd81611c9e565b840191505092915050565b60006020820190508181036000830152611d028184611caf565b905092915050565b6000819050919050565b611d1d81611d0a565b8114611d2857600080fd5b50565b600081359050611d3a81611d14565b92915050565b600060208284031215611d5657611d55611b93565b5b6000611d6484828501611d2b565b91505092915050565b600073ffffffffffffffffffffffffffffffffffffffff82169050919050565b6000611d9882611d6d565b9050919050565b611da881611d8d565b82525050565b6000602082019050611dc36000830184611d9f565b92915050565b611dd281611d8d565b8114611ddd57600080fd5b50565b600081359050611def81611dc9565b92915050565b60008060408385031215611e0c57611e0b611b93565b5b6000611e1a85828601611de0565b9250506020611e2b85828601611d2b565b9150509250929050565b600080600060608486031215611e4e57611e4d611b93565b5b6000611e5c86828701611de0565b9350506020611e6d86828701611de0565b9250506040611e7e86828701611d2b565b9150509250925092565b6000819050919050565b611e9b81611e88565b8114611ea657600080fd5b50565b600081359050611eb881611e92565b92915050565b600060208284031215611ed457611ed3611b93565b5b6000611ee284828501611ea9565b91505092915050565b611ef481611e88565b82525050565b6000602082019050611f0f6000830184611eeb565b92915050565b60008060408385031215611f2c57611f2b611b93565b5b6000611f3a85828601611ea9565b9250506020611f4b85828601611de0565b9150509250929050565b600060208284031215611f6b57611f6a611b93565b5b6000611f7984828501611de0565b91505092915050565b611f8b81611d0a565b82525050565b6000602082019050611fa66000830184611f82565b92915050565b611fb581611c22565b8114611fc057600080fd5b50565b600081359050611fd281611fac565b92915050565b60008060408385031215611fef57611fee611b93565b5b6000611ffd85828601611de0565b925050602061200e85828601611fc3565b9150509250929050565b600080fd5b600080fd5b7f4e487b7100000000000000000000000000000000000000000000000000000000600052604160045260246000fd5b61205a82611c9e565b810181811067ffffffffffffffff8211171561207957612078612022565b5b80604052505050565b600061208c611b89565b90506120988282612051565b919050565b600067ffffffffffffffff8211156120b8576120b7612022565b5b6120c182611c9e565b9050602081019050919050565b82818337600083830152505050565b60006120f06120eb8461209d565b612082565b90508281526020810184848401111561210c5761210b61201d565b5b6121178482856120ce565b509392505050565b600082601f83011261213457612133612018565b5b81356121448482602086016120dd565b91505092915050565b6000806000806080858703121561216757612166611b93565b5b600061217587828801611de0565b945050602061218687828801611de0565b935050604061219787828801611d2b565b925050606085013567ffffffffffffffff8111156121b8576121b7611b98565b5b6121c48782880161211f565b91505092959194509250565b600080604083850312156121e7576121e6611b93565b5b60006121f585828601611de0565b925050602061220685828601611de0565b9150509250929050565b7f4e487b7100000000000000000000000000000000000000000000000000000000600052602260045260246000fd5b6000600282049050600182168061225757607f821691505b60208210810361226a57612269612210565b5b50919050565b7f4552433732313a20617070726f76616c20746f2063757272656e74206f776e6560008201527f7200000000000000000000000000000000000000000000000000000000000000602082015250565b60006122cc602183611c63565b91506122d782612270565b604082019050919050565b600060208201905081810360008301526122fb816122bf565b9050919050565b7f4552433732313a20617070726f76652063616c6c6572206973206e6f7420746f60008201527f6b656e206f776e6572206e6f7220617070726f76656420666f7220616c6c0000602082015250565b600061235e603e83611c63565b915061236982612302565b604082019050919050565b6000602082019050818103600083015261238d81612351565b9050919050565b7f4572726f723a20536f756c626f756e6420746f6b656e732063616e6e6f74206260008201527f65207472616e736665727265642e000000000000000000000000000000000000602082015250565b60006123f0602e83611c63565b91506123fb82612394565b604082019050919050565b6000602082019050818103600083015261241f816123e3565b9050919050565b7f416363657373436f6e74726f6c3a2063616e206f6e6c792072656e6f756e636560008201527f20726f6c657320666f722073656c660000000000000000000000000000000000602082015250565b6000612482602f83611c63565b915061248d82612426565b604082019050919050565b600060208201905081810360008301526124b181612475565b9050919050565b7f4552524f523a204e6f20697373756520746f20636c61696d2e00000000000000600082015250565b60006124ee601983611c63565b91506124f9826124b8565b602082019050919050565b6000602082019050818103600083015261251d816124e1565b9050919050565b7f4552433732313a20696e76616c696420746f6b656e2049440000000000000000600082015250565b600061255a601883611c63565b915061256582612524565b602082019050919050565b600060208201905081810360008301526125898161254d565b9050919050565b7f4552433732313a2061646472657373207a65726f206973206e6f74206120766160008201527f6c6964206f776e65720000000000000000000000000000000000000000000000602082015250565b60006125ec602983611c63565b91506125f782612590565b604082019050919050565b6000602082019050818103600083015261261b816125df565b9050919050565b60006060820190506126376000830186611d9f565b6126446020830185611d9f565b6126516040830184611d9f565b949350505050565b600060608201905061266e6000830186611d9f565b61267b6020830185611d9f565b6126886040830184611f82565b949350505050565b7f4e487b7100000000000000000000000000000000000000000000000000000000600052601160045260246000fd5b60006126ca82611d0a565b91507fffffffffffffffffffffffffffffffffffffffffffffffffffffffffffffffff82036126fc576126fb612690565b5b600182019050919050565b7f4552433732313a20617070726f766520746f2063616c6c657200000000000000600082015250565b600061273d601983611c63565b915061274882612707565b602082019050919050565b6000602082019050818103600083015261276c81612730565b9050919050565b600081905092915050565b7f416363657373436f6e74726f6c3a206163636f756e7420000000000000000000600082015250565b60006127b4601783612773565b91506127bf8261277e565b601782019050919050565b60006127d582611c58565b6127df8185612773565b93506127ef818560208601611c74565b80840191505092915050565b7f206973206d697373696e6720726f6c6520000000000000000000000000000000600082015250565b6000612831601183612773565b915061283c826127fb565b601182019050919050565b6000612852826127a7565b915061285e82856127ca565b915061286982612824565b915061287582846127ca565b91508190509392505050565b600061288c82611d0a565b915061289783611d0a565b92508282026128a581611d0a565b915082820484148315176128bc576128bb612690565b5b5092915050565b60006128ce82611d0a565b91506128d983611d0a565b92508282019050808211156128f1576128f0612690565b5b92915050565b7f4e487b7100000000000000000000000000000000000000000000000000000000600052603260045260246000fd5b600061293182611d0a565b91506000820361294457612943612690565b5b600182039050919050565b7f537472696e67733a20686578206c656e67746820696e73756666696369656e74600082015250565b6000612985602083611c63565b91506129908261294f565b602082019050919050565b600060208201905081810360008301526129b481612978565b9050919050565b7f4552433732313a207472616e7366657220746f206e6f6e20455243373231526560008201527f63656976657220696d706c656d656e7465720000000000000000000000000000602082015250565b6000612a17603283611c63565b9150612a22826129bb565b604082019050919050565b60006020820190508181036000830152612a4681612a0a565b9050919050565b7f4552433732313a206d696e7420746f20746865207a65726f2061646472657373600082015250565b6000612a83602083611c63565b9150612a8e82612a4d565b602082019050919050565b60006020820190508181036000830152612ab281612a76565b9050919050565b7f4552433732313a20746f6b656e20616c7265616479206d696e74656400000000600082015250565b6000612aef601c83611c63565b9150612afa82612ab9565b602082019050919050565b60006020820190508181036000830152612b1e81612ae2565b9050919050565b600081519050919050565b600082825260208201905092915050565b6000612b4c82612b25565b612b568185612b30565b9350612b66818560208601611c74565b612b6f81611c9e565b840191505092915050565b6000608082019050612b8f6000830187611d9f565b612b9c6020830186611d9f565b612ba96040830185611f82565b8181036060830152612bbb8184612b41565b905095945050505050565b600081519050612bd581611bc9565b92915050565b600060208284031215612bf157612bf0611b93565b5b6000612bff84828501612bc6565b9150509291505056fea26469706673582212200166177a92510edf73c7aa526b58a2da170494bea9806f8a5448d39ac788aa9d64736f6c63430008110033a2646970667358221220246abcc6452c704c6ae5724075fb3955b9f2c0d1b025d77cc606d99c1f571b0464736f6c63430008110033",
  "linkReferences": {},
  "deployedLinkReferences": {}
}