{
  "_format": "hh-sol-artifact-1",
  "contractName": "SoulboundStorage",
  "sourceName": "contracts/soulboundStorage/SoulboundStorage.sol",
  "abi": [
    {
      "inputs": [],
      "stateMutability": "nonpayable",
      "type": "constructor"
    },
    {
      "anonymous": false,
      "inputs": [
        {
          "indexed": true,
          "internalType": "bytes32",
          "name": "role",
          "type": "bytes32"
        },
        {
          "indexed": true,
          "internalType": "bytes32",
          "name": "previousAdminRole",
          "type": "bytes32"
        },
        {
          "indexed": true,
          "internalType": "bytes32",
          "name": "newAdminRole",
          "type": "bytes32"
        }
      ],
      "name": "RoleAdminChanged",
      "type": "event"
    },
    {
      "anonymous": false,
      "inputs": [
        {
          "indexed": true,
          "internalType": "bytes32",
          "name": "role",
          "type": "bytes32"
        },
        {
          "indexed": true,
          "internalType": "address",
          "name": "account",
          "type": "address"
        },
        {
          "indexed": true,
          "internalType": "address",
          "name": "sender",
          "type": "address"
        }
      ],
      "name": "RoleGranted",
      "type": "event"
    },
    {
      "anonymous": false,
      "inputs": [
        {
          "indexed": true,
          "internalType": "bytes32",
          "name": "role",
          "type": "bytes32"
        },
        {
          "indexed": true,
          "internalType": "address",
          "name": "account",
          "type": "address"
        },
        {
          "indexed": true,
          "internalType": "address",
          "name": "sender",
          "type": "address"
        }
      ],
      "name": "RoleRevoked",
      "type": "event"
    },
    {
      "inputs": [],
      "name": "DEFAULT_ADMIN_ROLE",
      "outputs": [
        {
          "internalType": "bytes32",
          "name": "",
          "type": "bytes32"
        }
      ],
      "stateMutability": "view",
      "type": "function"
    },
    {
      "inputs": [],
      "name": "ENGINE_REGISTRAR",
      "outputs": [
        {
          "internalType": "bytes32",
          "name": "",
          "type": "bytes32"
        }
      ],
      "stateMutability": "view",
      "type": "function"
    },
    {
      "inputs": [],
      "name": "ERC721_REGISTRAR",
      "outputs": [
        {
          "internalType": "bytes32",
          "name": "",
          "type": "bytes32"
        }
      ],
      "stateMutability": "view",
      "type": "function"
    },
    {
      "inputs": [],
      "name": "FACTORY_REGISTRAR",
      "outputs": [
        {
          "internalType": "bytes32",
          "name": "",
          "type": "bytes32"
        }
      ],
      "stateMutability": "view",
      "type": "function"
    },
    {
      "inputs": [],
      "name": "SOULBOUND_COLLECTION",
      "outputs": [
        {
          "internalType": "bytes32",
          "name": "",
          "type": "bytes32"
        }
      ],
      "stateMutability": "view",
      "type": "function"
    },
    {
      "inputs": [
        {
          "internalType": "address",
          "name": "issuer",
          "type": "address"
        },
        {
          "internalType": "address",
          "name": "receiver",
          "type": "address"
        },
        {
          "internalType": "address",
          "name": "erc721",
          "type": "address"
        }
      ],
      "name": "addIssuedToken",
      "outputs": [],
      "stateMutability": "nonpayable",
      "type": "function"
    },
    {
      "inputs": [
        {
          "internalType": "address",
          "name": "receiver",
          "type": "address"
        },
        {
          "internalType": "address",
          "name": "erc721",
          "type": "address"
        },
        {
          "internalType": "uint256",
          "name": "tokenId",
          "type": "uint256"
        }
      ],
      "name": "confirmMint",
      "outputs": [],
      "stateMutability": "nonpayable",
      "type": "function"
    },
    {
      "inputs": [
        {
          "internalType": "address",
          "name": "deployer",
          "type": "address"
        }
      ],
      "name": "getDeployedCollections",
      "outputs": [
        {
          "internalType": "address[]",
          "name": "",
          "type": "address[]"
        }
      ],
      "stateMutability": "view",
      "type": "function"
    },
    {
      "inputs": [
        {
          "internalType": "address",
          "name": "issuer",
          "type": "address"
        }
      ],
      "name": "getMintsByIssuer",
      "outputs": [
        {
          "components": [
            {
              "internalType": "address",
              "name": "collection",
              "type": "address"
            },
            {
              "internalType": "address",
              "name": "receiver",
              "type": "address"
            }
          ],
          "internalType": "struct IssuerMint[]",
          "name": "",
          "type": "tuple[]"
        }
      ],
      "stateMutability": "view",
      "type": "function"
    },
    {
      "inputs": [
        {
          "internalType": "address",
          "name": "receiver",
          "type": "address"
        }
      ],
      "name": "getMintsByReceiver",
      "outputs": [
        {
          "components": [
            {
              "internalType": "address",
              "name": "collection",
              "type": "address"
            },
            {
              "internalType": "uint256",
              "name": "tokenId",
              "type": "uint256"
            },
            {
              "internalType": "bool",
              "name": "completed",
              "type": "bool"
            }
          ],
          "internalType": "struct ReceiverMint[]",
          "name": "",
          "type": "tuple[]"
        }
      ],
      "stateMutability": "view",
      "type": "function"
    },
    {
      "inputs": [
        {
          "internalType": "bytes32",
          "name": "role",
          "type": "bytes32"
        }
      ],
      "name": "getRoleAdmin",
      "outputs": [
        {
          "internalType": "bytes32",
          "name": "",
          "type": "bytes32"
        }
      ],
      "stateMutability": "view",
      "type": "function"
    },
    {
      "inputs": [
        {
          "internalType": "bytes32",
          "name": "role",
          "type": "bytes32"
        },
        {
          "internalType": "address",
          "name": "account",
          "type": "address"
        }
      ],
      "name": "grantRole",
      "outputs": [],
      "stateMutability": "nonpayable",
      "type": "function"
    },
    {
      "inputs": [
        {
          "internalType": "bytes32",
          "name": "role",
          "type": "bytes32"
        },
        {
          "internalType": "address",
          "name": "account",
          "type": "address"
        }
      ],
      "name": "hasRole",
      "outputs": [
        {
          "internalType": "bool",
          "name": "",
          "type": "bool"
        }
      ],
      "stateMutability": "view",
      "type": "function"
    },
    {
      "inputs": [
        {
          "internalType": "address",
          "name": "deployer",
          "type": "address"
        },
        {
          "internalType": "address",
          "name": "erc721",
          "type": "address"
        }
      ],
      "name": "registerCollection",
      "outputs": [],
      "stateMutability": "nonpayable",
      "type": "function"
    },
    {
      "inputs": [
        {
          "internalType": "address",
          "name": "soulboundEngine",
          "type": "address"
        }
      ],
      "name": "registerEngine",
      "outputs": [],
      "stateMutability": "nonpayable",
      "type": "function"
    },
    {
      "inputs": [
        {
          "internalType": "address",
          "name": "erc721Factory",
          "type": "address"
        }
      ],
      "name": "registerFactory",
      "outputs": [],
      "stateMutability": "nonpayable",
      "type": "function"
    },
    {
      "inputs": [
        {
          "internalType": "bytes32",
          "name": "role",
          "type": "bytes32"
        },
        {
          "internalType": "address",
          "name": "account",
          "type": "address"
        }
      ],
      "name": "renounceRole",
      "outputs": [],
      "stateMutability": "nonpayable",
      "type": "function"
    },
    {
      "inputs": [
        {
          "internalType": "bytes32",
          "name": "role",
          "type": "bytes32"
        },
        {
          "internalType": "address",
          "name": "account",
          "type": "address"
        }
      ],
      "name": "revokeRole",
      "outputs": [],
      "stateMutability": "nonpayable",
      "type": "function"
    },
    {
      "inputs": [
        {
          "internalType": "bytes4",
          "name": "interfaceId",
          "type": "bytes4"
        }
      ],
      "name": "supportsInterface",
      "outputs": [
        {
          "internalType": "bool",
          "name": "",
          "type": "bool"
        }
      ],
      "stateMutability": "view",
      "type": "function"
    },
    {
      "inputs": [
        {
          "internalType": "address",
          "name": "receiver",
          "type": "address"
        },
        {
          "internalType": "address",
          "name": "erc721",
          "type": "address"
        }
      ],
      "name": "wasMintConfirm",
      "outputs": [
        {
          "internalType": "bool",
          "name": "",
          "type": "bool"
        }
      ],
      "stateMutability": "view",
      "type": "function"
    }
  ],
  "bytecode": "0x60806040523480156200001157600080fd5b50620000447f2ee396f72883cee2ca990d38dff52f079165e598c709249e7fa9395d44827da5336200004a60201b60201c565b620001ad565b6200005c82826200013b60201b60201c565b6200013757600160008084815260200190815260200160002060000160008373ffffffffffffffffffffffffffffffffffffffff1673ffffffffffffffffffffffffffffffffffffffff16815260200190815260200160002060006101000a81548160ff021916908315150217905550620000dc620001a560201b60201c565b73ffffffffffffffffffffffffffffffffffffffff168173ffffffffffffffffffffffffffffffffffffffff16837f2f8788117e7eff1d82e926ec794901d17c78024a50270940304540a733656f0d60405160405180910390a45b5050565b600080600084815260200190815260200160002060000160008373ffffffffffffffffffffffffffffffffffffffff1673ffffffffffffffffffffffffffffffffffffffff16815260200190815260200160002060009054906101000a900460ff16905092915050565b600033905090565b61206a80620001bd6000396000f3fe608060405234801561001057600080fd5b506004361061012c5760003560e01c806372a3cf6d116100ad578063a217fddf11610071578063a217fddf14610365578063b2a8cef314610383578063cea0b189146103a1578063d547741f146103bf578063eb331577146103db5761012c565b806372a3cf6d146102b1578063783ff1f1146102e15780637f12bbd6146102fd57806391d1485414610319578063a0b6a241146103495761012c565b80633bece463116100f45780633bece463146101f95780634bbcaf031461022957806359f225d2146102595780635f0328ca146102755780636441b740146102935761012c565b806301ffc9a714610131578063248a9ca3146101615780632f2ff15d1461019157806336568abe146101ad5780633b688672146101c9575b600080fd5b61014b6004803603810190610146919061161a565b6103f7565b6040516101589190611662565b60405180910390f35b61017b600480360381019061017691906116b3565b610471565b60405161018891906116ef565b60405180910390f35b6101ab60048036038101906101a69190611768565b610490565b005b6101c760048036038101906101c29190611768565b6104b1565b005b6101e360048036038101906101de91906117a8565b610534565b6040516101f09190611893565b60405180910390f35b610213600480360381019061020e91906118b5565b610607565b6040516102209190611662565b60405180910390f35b610243600480360381019061023e91906117a8565b6107ac565b6040516102509190611a0e565b60405180910390f35b610273600480360381019061026e91906118b5565b6108cb565b005b61027d6109c4565b60405161028a91906116ef565b60405180910390f35b61029b6109e8565b6040516102a891906116ef565b60405180910390f35b6102cb60048036038101906102c691906117a8565b610a0c565b6040516102d89190611b0e565b60405180910390f35b6102fb60048036038101906102f691906117a8565b610b5c565b005b61031760048036038101906103129190611b30565b610bb4565b005b610333600480360381019061032e9190611768565b610e2d565b6040516103409190611662565b60405180910390f35b610363600480360381019061035e9190611baf565b610e97565b005b61036d610fd5565b60405161037a91906116ef565b60405180910390f35b61038b610fdc565b60405161039891906116ef565b60405180910390f35b6103a9611000565b6040516103b691906116ef565b60405180910390f35b6103d960048036038101906103d49190611768565b611024565b005b6103f560048036038101906103f091906117a8565b611045565b005b60007f7965db0b000000000000000000000000000000000000000000000000000000007bffffffffffffffffffffffffffffffffffffffffffffffffffffffff1916827bffffffffffffffffffffffffffffffffffffffffffffffffffffffff1916148061046a57506104698261109d565b5b9050919050565b6000806000838152602001908152602001600020600101549050919050565b61049982610471565b6104a281611107565b6104ac838361111b565b505050565b6104b96111fb565b73ffffffffffffffffffffffffffffffffffffffff168173ffffffffffffffffffffffffffffffffffffffff1614610526576040517f08c379a000000000000000000000000000000000000000000000000000000000815260040161051d90611c85565b60405180910390fd5b6105308282611203565b5050565b60606000600160008473ffffffffffffffffffffffffffffffffffffffff1673ffffffffffffffffffffffffffffffffffffffff1681526020019081526020016000208054806020026020016040519081016040528092919081815260200182805480156105f757602002820191906000526020600020905b8160009054906101000a900473ffffffffffffffffffffffffffffffffffffffff1673ffffffffffffffffffffffffffffffffffffffff16815260200190600101908083116105ad575b5050505050905080915050919050565b600080600360008573ffffffffffffffffffffffffffffffffffffffff1673ffffffffffffffffffffffffffffffffffffffff168152602001908152602001600020805480602002602001604051908101604052809291908181526020016000905b8282101561071657838290600052602060002090600302016040518060600160405290816000820160009054906101000a900473ffffffffffffffffffffffffffffffffffffffff1673ffffffffffffffffffffffffffffffffffffffff1673ffffffffffffffffffffffffffffffffffffffff168152602001600182015481526020016002820160009054906101000a900460ff16151515158152505081526020019060010190610669565b50505050905060005b815181101561079f57600082828151811061073d5761073c611ca5565b5b602002602001015190508473ffffffffffffffffffffffffffffffffffffffff16816000015173ffffffffffffffffffffffffffffffffffffffff160361078d57806040015193505050506107a6565b508061079890611d03565b905061071f565b5060009150505b92915050565b60606000600360008473ffffffffffffffffffffffffffffffffffffffff1673ffffffffffffffffffffffffffffffffffffffff168152602001908152602001600020805480602002602001604051908101604052809291908181526020016000905b828210156108bc57838290600052602060002090600302016040518060600160405290816000820160009054906101000a900473ffffffffffffffffffffffffffffffffffffffff1673ffffffffffffffffffffffffffffffffffffffff1673ffffffffffffffffffffffffffffffffffffffff168152602001600182015481526020016002820160009054906101000a900460ff1615151515815250508152602001906001019061080f565b50505050905080915050919050565b7f72b4fb608b2952a82ff79c001d6e0d067bc5ec4e6f16a83b5e8c42e7e24977226108f581611107565b61091f7fd5b05291269271970d8d5dbc70ed30a4151aa74baf700a373f5c2109327da6898361111b565b600160008473ffffffffffffffffffffffffffffffffffffffff1673ffffffffffffffffffffffffffffffffffffffff168152602001908152602001600020829080600181540180825580915050600190039060005260206000200160009091909190916101000a81548173ffffffffffffffffffffffffffffffffffffffff021916908373ffffffffffffffffffffffffffffffffffffffff160217905550505050565b7f98c85d0d0a6833fccb729b598b81d69686a23314237d1d995fc56bbef036e27781565b7fd5b05291269271970d8d5dbc70ed30a4151aa74baf700a373f5c2109327da68981565b60606000600260008473ffffffffffffffffffffffffffffffffffffffff1673ffffffffffffffffffffffffffffffffffffffff168152602001908152602001600020805480602002602001604051908101604052809291908181526020016000905b82821015610b4d57838290600052602060002090600202016040518060400160405290816000820160009054906101000a900473ffffffffffffffffffffffffffffffffffffffff1673ffffffffffffffffffffffffffffffffffffffff1673ffffffffffffffffffffffffffffffffffffffff1681526020016001820160009054906101000a900473ffffffffffffffffffffffffffffffffffffffff1673ffffffffffffffffffffffffffffffffffffffff1673ffffffffffffffffffffffffffffffffffffffff168152505081526020019060010190610a6f565b50505050905080915050919050565b7f98c85d0d0a6833fccb729b598b81d69686a23314237d1d995fc56bbef036e277610b8681611107565b610bb07f72b4fb608b2952a82ff79c001d6e0d067bc5ec4e6f16a83b5e8c42e7e24977228361111b565b5050565b7fd5b05291269271970d8d5dbc70ed30a4151aa74baf700a373f5c2109327da689610bde81611107565b600260008573ffffffffffffffffffffffffffffffffffffffff1673ffffffffffffffffffffffffffffffffffffffff16815260200190815260200160002060405180604001604052808473ffffffffffffffffffffffffffffffffffffffff1681526020018573ffffffffffffffffffffffffffffffffffffffff16815250908060018154018082558091505060019003906000526020600020906002020160009091909190915060008201518160000160006101000a81548173ffffffffffffffffffffffffffffffffffffffff021916908373ffffffffffffffffffffffffffffffffffffffff16021790555060208201518160010160006101000a81548173ffffffffffffffffffffffffffffffffffffffff021916908373ffffffffffffffffffffffffffffffffffffffff1602179055505050600360008473ffffffffffffffffffffffffffffffffffffffff1673ffffffffffffffffffffffffffffffffffffffff16815260200190815260200160002060405180606001604052808473ffffffffffffffffffffffffffffffffffffffff1681526020016000815260200160001515815250908060018154018082558091505060019003906000526020600020906003020160009091909190915060008201518160000160006101000a81548173ffffffffffffffffffffffffffffffffffffffff021916908373ffffffffffffffffffffffffffffffffffffffff1602179055506020820151816001015560408201518160020160006101000a81548160ff021916908315150217905550505050505050565b600080600084815260200190815260200160002060000160008373ffffffffffffffffffffffffffffffffffffffff1673ffffffffffffffffffffffffffffffffffffffff16815260200190815260200160002060009054906101000a900460ff16905092915050565b7fd5b05291269271970d8d5dbc70ed30a4151aa74baf700a373f5c2109327da689610ec181611107565b6000600360008673ffffffffffffffffffffffffffffffffffffffff1673ffffffffffffffffffffffffffffffffffffffff168152602001908152602001600020905060005b8180549050811015610fcd576000828281548110610f2857610f27611ca5565b5b906000526020600020906003020190508573ffffffffffffffffffffffffffffffffffffffff168160000160009054906101000a900473ffffffffffffffffffffffffffffffffffffffff1673ffffffffffffffffffffffffffffffffffffffff1603610fbb5784816001018190555060018160020160006101000a81548160ff02191690831515021790555050610fcd565b5080610fc690611d03565b9050610f07565b505050505050565b6000801b81565b7f72b4fb608b2952a82ff79c001d6e0d067bc5ec4e6f16a83b5e8c42e7e249772281565b7f2ee396f72883cee2ca990d38dff52f079165e598c709249e7fa9395d44827da581565b61102d82610471565b61103681611107565b6110408383611203565b505050565b7f2ee396f72883cee2ca990d38dff52f079165e598c709249e7fa9395d44827da561106f81611107565b6110997f98c85d0d0a6833fccb729b598b81d69686a23314237d1d995fc56bbef036e2778361111b565b5050565b60007f01ffc9a7000000000000000000000000000000000000000000000000000000007bffffffffffffffffffffffffffffffffffffffffffffffffffffffff1916827bffffffffffffffffffffffffffffffffffffffffffffffffffffffff1916149050919050565b611118816111136111fb565b6112e4565b50565b6111258282610e2d565b6111f757600160008084815260200190815260200160002060000160008373ffffffffffffffffffffffffffffffffffffffff1673ffffffffffffffffffffffffffffffffffffffff16815260200190815260200160002060006101000a81548160ff02191690831515021790555061119c6111fb565b73ffffffffffffffffffffffffffffffffffffffff168173ffffffffffffffffffffffffffffffffffffffff16837f2f8788117e7eff1d82e926ec794901d17c78024a50270940304540a733656f0d60405160405180910390a45b5050565b600033905090565b61120d8282610e2d565b156112e057600080600084815260200190815260200160002060000160008373ffffffffffffffffffffffffffffffffffffffff1673ffffffffffffffffffffffffffffffffffffffff16815260200190815260200160002060006101000a81548160ff0219169083151502179055506112856111fb565b73ffffffffffffffffffffffffffffffffffffffff168173ffffffffffffffffffffffffffffffffffffffff16837ff6391f5c32d9c69d2a47ea670b442974b53935d1edc7fd64eb21e047a839171b60405160405180910390a45b5050565b6112ee8282610e2d565b61137d576113138173ffffffffffffffffffffffffffffffffffffffff166014611381565b6113218360001c6020611381565b604051602001611332929190611e54565b6040516020818303038152906040526040517f08c379a00000000000000000000000000000000000000000000000000000000081526004016113749190611ed8565b60405180910390fd5b5050565b6060600060028360026113949190611efa565b61139e9190611f3c565b67ffffffffffffffff8111156113b7576113b6611f70565b5b6040519080825280601f01601f1916602001820160405280156113e95781602001600182028036833780820191505090505b5090507f30000000000000000000000000000000000000000000000000000000000000008160008151811061142157611420611ca5565b5b60200101907effffffffffffffffffffffffffffffffffffffffffffffffffffffffffffff1916908160001a9053507f78000000000000000000000000000000000000000000000000000000000000008160018151811061148557611484611ca5565b5b60200101907effffffffffffffffffffffffffffffffffffffffffffffffffffffffffffff1916908160001a905350600060018460026114c59190611efa565b6114cf9190611f3c565b90505b600181111561156f577f3031323334353637383961626364656600000000000000000000000000000000600f86166010811061151157611510611ca5565b5b1a60f81b82828151811061152857611527611ca5565b5b60200101907effffffffffffffffffffffffffffffffffffffffffffffffffffffffffffff1916908160001a905350600485901c94508061156890611f9f565b90506114d2565b50600084146115b3576040517f08c379a00000000000000000000000000000000000000000000000000000000081526004016115aa90612014565b60405180910390fd5b8091505092915050565b600080fd5b60007fffffffff0000000000000000000000000000000000000000000000000000000082169050919050565b6115f7816115c2565b811461160257600080fd5b50565b600081359050611614816115ee565b92915050565b6000602082840312156116305761162f6115bd565b5b600061163e84828501611605565b91505092915050565b60008115159050919050565b61165c81611647565b82525050565b60006020820190506116776000830184611653565b92915050565b6000819050919050565b6116908161167d565b811461169b57600080fd5b50565b6000813590506116ad81611687565b92915050565b6000602082840312156116c9576116c86115bd565b5b60006116d78482850161169e565b91505092915050565b6116e98161167d565b82525050565b600060208201905061170460008301846116e0565b92915050565b600073ffffffffffffffffffffffffffffffffffffffff82169050919050565b60006117358261170a565b9050919050565b6117458161172a565b811461175057600080fd5b50565b6000813590506117628161173c565b92915050565b6000806040838503121561177f5761177e6115bd565b5b600061178d8582860161169e565b925050602061179e85828601611753565b9150509250929050565b6000602082840312156117be576117bd6115bd565b5b60006117cc84828501611753565b91505092915050565b600081519050919050565b600082825260208201905092915050565b6000819050602082019050919050565b61180a8161172a565b82525050565b600061181c8383611801565b60208301905092915050565b6000602082019050919050565b6000611840826117d5565b61184a81856117e0565b9350611855836117f1565b8060005b8381101561188657815161186d8882611810565b975061187883611828565b925050600181019050611859565b5085935050505092915050565b600060208201905081810360008301526118ad8184611835565b905092915050565b600080604083850312156118cc576118cb6115bd565b5b60006118da85828601611753565b92505060206118eb85828601611753565b9150509250929050565b600081519050919050565b600082825260208201905092915050565b6000819050602082019050919050565b6000819050919050565b61193481611921565b82525050565b61194381611647565b82525050565b60608201600082015161195f6000850182611801565b506020820151611972602085018261192b565b506040820151611985604085018261193a565b50505050565b60006119978383611949565b60608301905092915050565b6000602082019050919050565b60006119bb826118f5565b6119c58185611900565b93506119d083611911565b8060005b83811015611a015781516119e8888261198b565b97506119f3836119a3565b9250506001810190506119d4565b5085935050505092915050565b60006020820190508181036000830152611a2881846119b0565b905092915050565b600081519050919050565b600082825260208201905092915050565b6000819050602082019050919050565b604082016000820151611a726000850182611801565b506020820151611a856020850182611801565b50505050565b6000611a978383611a5c565b60408301905092915050565b6000602082019050919050565b6000611abb82611a30565b611ac58185611a3b565b9350611ad083611a4c565b8060005b83811015611b01578151611ae88882611a8b565b9750611af383611aa3565b925050600181019050611ad4565b5085935050505092915050565b60006020820190508181036000830152611b288184611ab0565b905092915050565b600080600060608486031215611b4957611b486115bd565b5b6000611b5786828701611753565b9350506020611b6886828701611753565b9250506040611b7986828701611753565b9150509250925092565b611b8c81611921565b8114611b9757600080fd5b50565b600081359050611ba981611b83565b92915050565b600080600060608486031215611bc857611bc76115bd565b5b6000611bd686828701611753565b9350506020611be786828701611753565b9250506040611bf886828701611b9a565b9150509250925092565b600082825260208201905092915050565b7f416363657373436f6e74726f6c3a2063616e206f6e6c792072656e6f756e636560008201527f20726f6c657320666f722073656c660000000000000000000000000000000000602082015250565b6000611c6f602f83611c02565b9150611c7a82611c13565b604082019050919050565b60006020820190508181036000830152611c9e81611c62565b9050919050565b7f4e487b7100000000000000000000000000000000000000000000000000000000600052603260045260246000fd5b7f4e487b7100000000000000000000000000000000000000000000000000000000600052601160045260246000fd5b6000611d0e82611921565b91507fffffffffffffffffffffffffffffffffffffffffffffffffffffffffffffffff8203611d4057611d3f611cd4565b5b600182019050919050565b600081905092915050565b7f416363657373436f6e74726f6c3a206163636f756e7420000000000000000000600082015250565b6000611d8c601783611d4b565b9150611d9782611d56565b601782019050919050565b600081519050919050565b60005b83811015611dcb578082015181840152602081019050611db0565b60008484015250505050565b6000611de282611da2565b611dec8185611d4b565b9350611dfc818560208601611dad565b80840191505092915050565b7f206973206d697373696e6720726f6c6520000000000000000000000000000000600082015250565b6000611e3e601183611d4b565b9150611e4982611e08565b601182019050919050565b6000611e5f82611d7f565b9150611e6b8285611dd7565b9150611e7682611e31565b9150611e828284611dd7565b91508190509392505050565b6000601f19601f8301169050919050565b6000611eaa82611da2565b611eb48185611c02565b9350611ec4818560208601611dad565b611ecd81611e8e565b840191505092915050565b60006020820190508181036000830152611ef28184611e9f565b905092915050565b6000611f0582611921565b9150611f1083611921565b9250828202611f1e81611921565b91508282048414831517611f3557611f34611cd4565b5b5092915050565b6000611f4782611921565b9150611f5283611921565b9250828201905080821115611f6a57611f69611cd4565b5b92915050565b7f4e487b7100000000000000000000000000000000000000000000000000000000600052604160045260246000fd5b6000611faa82611921565b915060008203611fbd57611fbc611cd4565b5b600182039050919050565b7f537472696e67733a20686578206c656e67746820696e73756666696369656e74600082015250565b6000611ffe602083611c02565b915061200982611fc8565b602082019050919050565b6000602082019050818103600083015261202d81611ff1565b905091905056fea2646970667358221220c1ee06763c9217e6d62c83bdb4f6201245a8a0841d074ac2f3d29db9a16ca9c864736f6c63430008110033",
  "linkReferences": {},
  "deployedLinkReferences": {}
}